:03000000020F8369
:0C0F8300787FE4F6D8FD758120020FCACB
:1011CB003F065B4F666D7D077F6FBF86DBCFE6ED1E
:1011DB00FD87FFEFC0F9A4B0999282F880908883C5
:0811EB00C6A1868E89888CFFE5
:0A11A1009011DF93F5B07F017E008E
:1011AB00D3EF9400EE6480948040147D647C00ED5A
:0F11BB001D70011CED4C70F7EF1F70E41E80E1FA
:0111CA002202
:100D3800A907AA0553B5FDE4F5B07F01FE1211AB72
:100D480043B5021211A753B5FD53B5FEE91211A11F
:100D580043B5011211A753B5FE53B5FD75B0011285
:100D680011A743B5021211A753B5FD7F0A7E0012E1
:100D780011AB53B5FDE4F5B07F01FE1211AB43B5DD
:100D8800021211A753B5FD53B5FEEA1211A143B5DE
:100D9800011211A753B5FE53B5FD75B0021211A784
:100DA80043B5021211A753B5FD53B5FD7F0A7E0066
:100DB8001211ABE4F5B07F01FE1211AB43B502127C
:100DC80011A753B5FD53B5FEEB1211A143B501129E
:100DD80011A753B5FE53B5FD75B0041211A743B55D
:100DE800021211A753B5FD7F0A7E001211ABE4F57C
:100DF800B07F01FE1211AB43B5021211A753B5FD26
:100E080053B5FE900066E01211A143B5011211A777
:100E180053B5FE53B5FD75B0081211A743B50212BC
:0C0E280011A753B5FD7F0A7E000211AB3C
:1010D200C100410062004800020000000000000060
:1010E20000420030000141002F0041004900410050
:1010F2003864410032004100330044000E00000019
:0D1102000044001700000000420000010042
:100E3400E4F5A753D9BF12000E121175120EDC127D
:100E4400114412105290004A12056A0000000090EA
:100E5400004E12056A0000000043E702D2AF43A02F
:100E6400C09000667412F07B0CFD7F0B120D3812DB
:100E7400059B30010C7F01121094C2017F121210E5
:100E84009490005AE0900002F090005BE090000320
:100E9400F0A37411F0900062E0900005F0A37401D7
:100EA400F0A3742CF0A37402F0A374BCF09000447B
:100EB400E004F07006900043E004F0D3900044E0B6
:100EC40094E8900043E0940340977F01121094E467
:080ED400900043F0A3F08089B7
:0A000E00AFA775A70F75A1878FA794
:0100180022C5
:10117500AFA775A70F43D40153F1FE43A44043A580
:101185000853A5BF43D60F53F3F043A6C075AEFF72
:0B11950043AF0375E10275C7408FA750
:0111A000222C
:10114400AFA7E4F5A743BC0175BE0475BD6C75BEBD
:101154000775BDA075BE0875BD0153BCFE75E803D7
:1011640075D13375BB0A75BC3843E604D2EF8FA73B
:011174002258
:10105200AFA7E4F5A7F58EF588758921758A907595
:101062008CE8D28CD2A9F5C8438E1075CBF675CA1E
:101072009F74FFF5CDF5CCD2ADD2CAD2BDE4F591C5
:101082007592307593F87594307595F84391048F85
:01109200A7B6
:01109300223A
:100EDC00AFA775A70C43C00143C04E759B14759A00
:100EEC000275C30075C2F0E4F5C5F5C475C75F752E
:100EFC00C6FCF5CBF5CA75D31475D28875CD807543
:100F0C00CC44F5BF75BE11E5BF20E7FB75CD8075F0
:100F1C00CC0C75BF0075BE03E5BF20E7FB75D30095
:100F2C0075D28875CDA075CC0475BF0075BE01E572
:100F3C00BF20E7FB75CDA075CC4875BF0075BE1200
:100F4C00E5BF20E7FBE4FEEE64126020EE64116066
:100F5C001BEE64036016EE64016011E4F5CDF5CC74
:100F6C00EEFD75BF008DBEE5BF20E7FB0EEEB42095
:060F7C00D653C0BE8FA792
:010F8200224C
:10109400AEA775A70C900002E0F5D4A3E0F5D5A3A4
:1010A400E0F5D6A3E0F5D7A3E0F5DAA3E0F5DBA3FA
:1010B400E0F5DCA3E0F5DD75C30075C287EFFD75CF
:0D10C400BF008DBEE5BF20E7FBAF068FA784
:0110D10022FC
:10059B0090004EE0FCA3E0FDA3E0FEA3E0FFE4121D
:1005AB00039D7B007AF0797F78451202877B007A76
:1005BB0060796A784612017EE4FBFA794078401242
:1005CB000287E4FBFA797A784312028790000E12C5
:1005DB00055EE4FFFE7D7A7C4290000EE0F8A3E01E
:1005EB00F9A3E0FAA3E0FB12017EE4FBFA7973783E
:1005FB00C312008D1203DBEE3395E0FDFC90002B54
:10060B0012055EE47BE87A03F9F890002BE0FCA37B
:10061B00E0FDA3E0FEA3E0FF120498AC00AD01AE39
:10062B0002AF03E47B64FAF9F8120498C004C00526
:10063B00C006C007E47BE87A03F9F890002BE0FCD6
:10064B00A3E0FDA3E0FEA3E0FF12049878041205DB
:10065B004BD003D002D001D000EB4FFFEA4EFE90FF
:10066B000012EEF0A3EFF0E47B64FAF9F890002BA4
:10067B00E0FCA3E0FDA3E0FEA3E0FF120498AC00B6
:10068B00AD01AE02AF03E47B0AFAF9F812049878D5
:10069B000412054BC004C005C006C007E47B0AFA70
:1006AB00F9F890002BE0FCA3E0FDA3E0FEA3E0FF34
:1006BB00120498AE02AF03D003D002D001D000EFEA
:1006CB004BFFEE4AFE900014EEF0A3EFF090004AC1
:1006DB00E0FCA3E0FDA3E0FEA3E0FFE412039D7B9F
:1006EB00007AF0797F78451202877B007A60796A0D
:1006FB00784612017EE4FBFA79407840120287E4D7
:10070B00FBFA797A784312028790001712055EE4A0
:10071B00FFFE7D7A7C42900017E0F8A3E0F9A3E09E
:10072B00FAA3E0FB12017EE4FBFA797378C31200A3
:10073B008D1203DBEE3395E0FDFC90003412055E69
:10074B00E47BE87A03F9F8900034E0FCA3E0FDA326
:10075B00E0FEA3E0FF120498AC00AD01AE02AF03C4
:10076B00E47B64FAF9F8120498C004C005C006C013
:10077B0007E47BE87A03F9F8900034E0FCA3E0FD92
:10078B00A3E0FEA3E0FF120498780412054BD003FC
:10079B00D002D001D000EB4FFFEA4EFE90001BEED3
:1007AB00F0A3EFF0E47B64FAF9F8900034E0FCA3DB
:1007BB00E0FDA3E0FEA3E0FF120498AC00AD01AE98
:1007CB0002AF03E47B0AFAF9F812049878041205D5
:1007DB004BC004C005C006C007E47B0AFAF9F890C9
:1007EB000034E0FCA3E0FDA3E0FEA3E0FF120498BD
:1007FB00AE02AF03D003D002D001D000EF4BFFEE1F
:0B080B004AFE90001DEEF0A3EFF0226B
:100A2D0090002BE0FCA3E0FDA3E0FEA3E0FFE412A9
:100A3D00039DE4FBFA79C87842120287C004C00511
:100A4D00C006C007900056E0FCA3E0FDA3E0FEA3A6
:100A5D00E0FFE412039DD003D002D001D0001200BC
:100A6D008990002712055E90000AE0FCA3E0FDA32B
:100A7D00E0FEA3E0FF900027E0F8A3E0F9A3E0FA81
:100A8D00A3E0FB12008D90000A12055E900052E06B
:100A9D00F8A3E0F9A3E0FAA3E0FB900027E0FCA3A4
:100AAD00E0FDA3E0FEA3E0FF12008990006C1205AB
:100ABD005E900027E0FCA3E0FDA3E0FEA3E0FF9025
:100ACD00005212055E90000AE0FCA3E0FDA3E0FEDB
:100ADD00A3E0FF90003FE0F8A3E0F9A3E0FAA3E064
:100AED00FB12017EC004C005C006C007900027E0C0
:100AFD00FCA3E0FDA3E0FEA3E0FF900045E0F8A31A
:100B0D00E0F9A3E0FAA3E0FB12017ED003D002D0FE
:100B1D0001D00012008DC004C005C006C0079000B2
:100B2D006CE0FCA3E0FDA3E0FEA3E0FF90003BE042
:100B3D00F8A3E0F9A3E0FAA3E0FB12017ED003D005
:100B4D0002D001D00012008D90007012055EE4FFFE
:100B5D00FEFDFC900070E0F8A3E0F9A3E0FAA3E03D
:100B6D00FB1203246002501BE4FFFEFDFC9000709D
:100B7D00E0F8A3E0F9A3E0FAA3E0FB12032460037D
:100B8D00020C23900070E0FCA3E0FDA3E0FEA3E0C7
:100B9D00FFE4FBFA79C878421202879000701205C3
:100BAD005E900070E0FCA3E0FDA3E0FEA3E0FF1269
:100BBD0003DB900032EFF0E4A3F0FFFEFDFC9000AC
:100BCD0070E0F8A3E0F9A3E0FAA3E0FB12032460C0
:100BDD002240207F9A7E997D997C3E900070E0F8AE
:100BED00A3E0F9A3E0FAA3E0FB1203245005E4907F
:100BFD000032F0E4FFFE7D807C3F900070E0F8A3B2
:100C0D00E0F9A3E0FAA3E0FB1203246010400E907C
:0D0C1D0000327401F022E4900032F0A3F0E8
:010C2A0022A7
:030083000208165A
:10081600C0E0C0F0C083C082C0D075D000C000C0A8
:0D08260001C002C003C004C005C006C00729
:1008330090006BE594F0AF9CAB0790006AE5AAF0DB
:10084300900069E5ABF0900068E5ACF0900067E5D7
:10085300ADF090006AE05401FA900067E0FCA3E079
:10086300FDA3E0FEA3E0FF780112053890006712B4
:10087300055EAF02EA6007900067E04480F075C34D
:100883000075C27FEBFF75BF008FBEE5BF20E7FB9E
:1008930090006BE020E4030209F290005AE5D4F0E3
:1008A300A3E5D5F0A3E5D6F0A3E5D7F0A3E5DAF009
:1008B300A3E5DBF0A3E5DCF0A3E5DDF0900016741F
:1008C30001F0EBB4110990005CE0B41002D201AF67
:1008D30003EB640360030209F290005CE0640160CF
:1008E300030209F290005BE06401707B90005AE020
:1008F30024FE601924FE601A24FC601B24F8601C8B
:1009030024F0601D241F701C1200038017120019AD
:100913008012120020800D12002E800812003580F4
:100923000312003C90005AE0900002F090005BE05C
:10093300900003F0A37411F0900062E0900005F0C2
:10094300900012A3E0900006F0900014A3E0900042
:1009530007F090001BA3E0900008F090001DA3E0B7
:10096300900009F00209F290005BE0641160030259
:1009730009F290005AE024FE601924FE601A24FC58
:10098300601B24F8601C24F0601D241F701C1200DF
:100993000380171200198012120020800D12002EFE
:1009A3008008120035800312003C9000627411F03D
:1009B30090005AE0900002F090005BE0900003F09A
:1009C300A37411F0A3F0900012A3E0900006F0903E
:1009D3000014A3E0900007F090001BA3E090000830
:1009E300F090001DA3E0900009F07F011210949095
:1009F300006BE05407600664076002D20090006B4E
:0F0A0300E030E702D20090006BE030E602D20054
:100A1200D007D006D005D004D003D002D001D00038
:0B0A2200D0D0D082D083D0F0D0E032E2
:03000B0002100FD1
:10100F00C0E0C0F0C083C082C0D075D000C000C0A7
:10101F0001C002C003C004C005C006C007C28D7561
:10102F008A90758CE8120A2DD007D006D005D0040F
:10103F00D003D002D001D000D0D0D082D083D0F056
:03104F00D0E032BC
:03002B00021110AF
:10111000C0E0C083C082C0D075D000C007C2CF90ED
:10112000002FE0FFB40103A3800A74312FF582E49D
:101130003400F583E04410F5BBD007D0D0D082D086
:0411400083D0E03246
:03006B0002000A86
:01000A0032C3
:03004B00020C2B79
:100C2B00C0E0C0F0C083C082C0D075D000C000C08F
:0D0C3B0001C002C003C004C005C006C00710
:100C4800C2ED90002FE025E025E0241FF582E43472
:100C580000F583C083C082E0F8A3E0F9A3E0FAA31B
:100C6800E0FBAFBDAEBEE4FCFDEB2FFFEA3EFEEDC0
:100C780039FDEC38FCD082D08312055E90002FE05D
:100C880064016003020D17900001E024FFF090005A
:100C980000E034FFF0E07002A3E0706C9000000404
:100CA800F0A3E4F0900074F0900000E0FEA3E0FBF5
:100CB800AA06E4F9F8900074E025E025E0241FF581
:100CC80082E43400F583E0FCA3E0FDA3E0FEA3E0AA
:100CD800FF120498900074E0FB25E025E0244AF513
:100CE80082E43400F58312055EEB25E025E0241F3D
:100CF800F582E43400F58312056A000000009000D4
:100D080074E004F0E0B402A090002FE4F0800690B4
:050D1800002FE004F0D3
:100D1D00D007D006D005D004D003D002D001D0002A
:0B0D2D00D0D0D082D083D0F0D0E032D4
:0700030043904043A040229E
:0700190043904043A0402288
:0700200043904043A0402281
:07002E0043904043A0402273
:0700350043904043A040226C
:07003C005390BF53A0BF2247
:10008600020447E86480F8E933E83360110460F05D
:10009600ED33EC337009E8FCE9FDEAFEEBFF2204E0
:1000A60060DED3EB9FEA9EE99DE8C2E78CF0C2F7DB
:1000B60095F0400CE8CCF8E9CDF9EACEFAEBCFFBA7
:1000C60012041285D0F05804700320D5B3E80470EA
:1000D600075002B2D502045192D5EC0460F7E4CC85
:1000E600C0E0C398F8603B94186008400DD0E0FB70
:1000F600020429E4FBFAC9FC8028E830E406E4C9D6
:10010600FBE4CAFCE830E305E4C9CACBFCE85407C3
:100116006010F8C3E913F9EA13FAEB13FBEC13FCCE
:10012600D8F130F52FC3E49CFCEF9BFFEE9AFEED71
:1001360099FDD0E0FBEF4E4D4C701222DB0302041A
:100146004EEC2CFCEF33FFEE33FEED33FDED30E7E6
:10015600EB020429EF2BFFEE3AFEED39FDD0E0FB72
:1001660050130BBB0003020451ED13FDEE13FEEF1B
:0801760013FFEC13FC02042945
:10017E00EC4D6011E8497017ED33EC3304600DE47B
:10018E00FCFFFEFD22E933E8330470F80204471247
:10019E00041258046009E4CC248150062850090248
:1001AE00045128400302044EC0E0EB4A7044B9806B
:1001BE0006D0E0FB02043DEF4E701CBD8008EBFF45
:1001CE00EAFEE9FD80EBE98DF0A4FEE5F0020267A0
:1001DE00E9CDF9EAFEEBFFEF89F0A4FCE5F0CE895C
:1001EE00F0A42EFFE435F0CD89F0A42DFEE435F019
:1001FE008067EF4E7005BD80D780C3EF8BF0A4AC47
:10020E00F0EE8BF0A42CFCE435F0F8EF8AF0A42C81
:10021E00E5F038FCE433CB8DF0A42CFCE5F03BF894
:10022E00EE8AF0A42CFCE5F038F8E433CF89F0A484
:10023E002CFCE5F038CF3400CE89F0A42FFFE5F08A
:10024E003EFEE433C98DF0A42EFEE5F039CD8AF0E2
:10025E00A42FFFE5F03EFEE43DFD33D0E0FB50075A
:10026E000BBB000F020451EC2CFCEF33FFEE33FE00
:06027E00ED33FD0204292E
:10028400020451EC5D046005E8590470030204475C
:10029400120412580460F6EC4860F2EC7004FDFE9F
:1002A400FF22C860DB2481C85009C398600250064D
:1002B40002044E9850CAF582E9294B4A7005AB8274
:1002C40002043D75F0007C1A7880C3EF9BEE9AED32
:1002D40099400DC3EF9BFFEE9AFEED99FDE842F0C5
:1002E400DC23ACF0D0E0FFD0E0FED0E0FDAB822018
:1002F400E7101BEB60BAEC2CFCEF33FFEE33FEEDA2
:1003040033FD020429E803F830E705C0F075F00076
:10031400EF2FFFEE33FEED33FD40B830E7C280AA85
:1003240074F8CC6480CCC86480C8F58204604FC380
:10033400EB9FF5F0EA9E42F0E99D42F0E89C45F01F
:10034400603C501DE5825FFFE582D313CB5BCBF4A9
:100354002B5582FB50280ABA002409B900200880D2
:100364001DE5825BFBE582D313CF5FCFF4C3132F6C
:100374005582FF50090EBE00050DBD00010CC3EBF4
:100384009FF5F0EA9E42F0E99D42F0E89C45F0605A
:0903940007CC4820E701B3EC227C
:10039D0075F020800E75F010800575F0087D007EDB
:1003AD00007F003392D530D50312052AEC3340106F
:1003BD00EF33FFEE33FEED33FDEC33FCD5F0ED22E4
:0E03CD00E5F0247EA2D513CC92E7CDCEFF2220
:1003DB00EDD2E7CD33EC3392D524814006E4FFFE1A
:1003EB00FDFC22FCE4CFCECDCC24E0501174FF8079
:1003FB00EDC3CC13CCCD13CDCE13CECF13CF047016
:07040B00F030D5DE02052AE6
:10041200E9D2E7C933E833F892D5EDD2E7CD33EC30
:0704220033FC5002B2D522A9
:10042900EC30E7100FBF000C0EBE00080DBD000434
:100439000BEB6014A2D5EB13FCED92E7FD2274FFE0
:10044900FCFDFEFF22E480F8A2D574FF13FC7D8039
:03045900E480EF4D
:100F8F00020E34E493A3F8E493A34003F68001F236
:100F9F0008DFF48029E493A3F85407240CC8C33363
:100FAF00C4540F4420C8834004F456800146F6DF32
:100FBF00E4800B01020408102040809010D2E47EE0
:100FCF00019360BCA3FF543F30E509541FFEE49327
:100FDF00A360010ECF54C025E060A840B8E493A3EE
:100FEF00FAE493A3F8E493A3C8C582C8CAC583CA19
:100FFF00F0A3C8C582C8CAC583CADFE9DEE780BED1
:01110F0000DF
:10045C0075F008758200EF2FFFEE33FECD33CDCC57
:10046C0033CCC58233C5829BED9AEC99E5829840DA
:10047C000CF582EE9BFEED9AFDEC99FC0FD5F0D6B7
:10048C00E4CEFBE4CDFAE4CCF9A88222B800C1B9E1
:10049C000059BA002DEC8BF084CFCECDFCE5F0CB1F
:1004AC00F97818EF2FFFEE33FEED33FDEC33FCEB58
:1004BC0033FB10D703994004EB99FB0FD8E5E4F913
:1004CC00FA227818EF2FFFEE33FEED33FDEC33FC00
:1004DC00C933C910D7059BE99A4007EC9BFCE99AF4
:1004EC00F90FD8E0E4C9FAE4CCFB2275F010EF2F39
:1004FC00FFEE33FEED33FDCC33CCC833C810D70739
:10050C009BEC9AE899400AED9BFDEC9AFCE899F873
:0E051C000FD5F0DAE4CDFBE4CCFAE4C8F92206
:0E052A00C3E49FFFE49EFEE49DFDE49CFC22E2
:10053800E8600FECC313FCED13FDEE13FEEF13FFA1
:03054800D8F122C5
:10054B00E8600FEFC333FFEE33FEED33FDEC33FC0E
:03055B00D8F122B2
:0C055E00ECF0A3EDF0A3EEF0A3EFF02210
:10056A00A8828583F0D083D0821205811205811278
:10057A000581120581E473E493A3C583C5F0C5839D
:10058A00C8C582C8F0A3C583C5F0C583C8C582C8DB
:01059A00223E
:00000001FF
