:03000000020EDF0E
:0C0EDF00787FE4F6D8FD758120020F2614
:101146003F065B4F666D7D077F6FBF86DBCFE6EDA3
:10115600FD87FFEFC0F9A4B0999282F8809088834A
:08116600C6A1868E89888CFF6A
:0A111C0090115A93F5B07F017E0098
:10112600D3EF9400EE6480948040147D647C00EDDF
:0F1136001D70011CED4C70F7EF1F70E41E80E17F
:011145002287
:100D3C00A907AA0553B5FDE4F5B07F01FE121126F3
:100D4C0043B50212112253B5FD53B5FEE912111C25
:100D5C0043B50112112253B5FE53B5FD75B0011206
:100D6C00112243B50212112253B5FD7F0A7E0012E7
:100D7C00112653B5FDE4F5B07F01FE12112643B5E3
:100D8C000212112253B5FD53B5FEEA12111C43B5E4
:100D9C000112112253B5FE53B5FD75B0021211228A
:100DAC0043B50212112253B5FD53B5FD7F0A7E00E7
:100DBC00121126E4F5B07F01FE12112643B5021282
:100DCC00112253B5FD53B5FEEB12111C43B50112A4
:100DDC00112253B5FE53B5FD75B00412112243B563
:100DEC000212112253B5FD7F0A7E00121126E4F582
:100DFC00B07F01FE12112643B50212112253B5FD2C
:100E0C0053B5FE900062E012111C43B50112112281
:100E1C0053B5FE53B5FD75B00812112243B502123D
:0C0E2C00112253B5FD7F0A7E0002112642
:10108100C10041005E00480002F1020304050607A9
:101091000842002C000141002B00410045004100A5
:1010A1003864410032004100330044000E0000006A
:0D10B1000044001700000000420000010094
:100F6B00E4F5A753D9BF12000E1210F0120E38126F
:100F7B0010BF12100190004612056A00000000908D
:100F8B00004A12056A0000000043E702D2AF43A0FB
:100F9B00C09000627412F07B0CFD7F0B120D3C12A3
:100FAB00059B3001EC7F01121043C2017F1212101E
:030FBB004380DE92
:0A000E00AFA775A70F75A1878FA794
:0100180022C5
:1010F000AFA775A70F43D40153F1FE43A44043A506
:101100000853A5BF43D60F53F3F043A6C075AEFFF7
:0B11100043AF0375E10275C7408FA7D5
:01111B0022B1
:1010BF00AFA7E4F5A743BC0175BE0475BD6C75BE43
:1010CF000775BDA075BE0875BD0153BCFE75E8035D
:1010DF0075D13375BB0A75BC3843E604D2EF8FA7C1
:0110EF0022DE
:10100100AFA7E4F5A7F58EF588758921758A9075E6
:101011008CE8D28CD2A9F5C8438E1075CBF675CA6F
:101021009F74FFF5CDF5CCD2ADD2CAD2BDE4F59116
:101031007592307593F87594307595F84391048FD6
:01104100A707
:01104200228B
:100E3800AFA775A70C43C00143C04E759B14759AA4
:100E48000275C30075C2F0E4F5C5F5C475C75F75D2
:100E5800C6FCF5CBF5CA75D31475D28875CD8075E7
:100E6800CC44F5BF75BE11E5BF20E7FB75CD807595
:100E7800CC0C75BF0075BE03E5BF20E7FB75D3003A
:100E880075D28875CDA075CC0475BF0075BE01E517
:100E9800BF20E7FB75CDA075CC4875BF0075BE12A5
:100EA800E5BF20E7FBE4FEEE64126020EE6411600B
:100EB8001BEE64036016EE64016011E4F5CDF5CC19
:100EC800EEFD75BF008DBEE5BF20E7FB0EEEB4203A
:060ED800D653C0BE8FA737
:010EDE0022F1
:10104300AEA775A70C900002E0F5D4A3E0F5D5A3F5
:10105300E0F5D6A3E0F5D7A3E0F5DAA3E0F5DBA34B
:10106300E0F5DCA3E0F5DD75C30075C287EFFD7520
:0D107300BF008DBEE5BF20E7FBAF068FA7D5
:01108000224D
:10059B0090004AE0FCA3E0FDA3E0FEA3E0FFE41221
:1005AB00039D7B007AF0797F78451202877B007A76
:1005BB0060796A784612017EE4FBFA794078401242
:1005CB000287E4FBFA797A784312028790000E12C5
:1005DB00055EE4FFFE7D7A7C4290000EE0F8A3E01E
:1005EB00F9A3E0FAA3E0FB12017EE4FBFA7973783E
:1005FB00C312008D1203DBEE3395E0FDFC90002E51
:10060B0012055EE47BE87A03F9F890002EE0FCA378
:10061B00E0FDA3E0FEA3E0FF120498AC00AD01AE39
:10062B0002AF03E47B64FAF9F8120498C004C00526
:10063B00C006C007E47BE87A03F9F890002EE0FCD3
:10064B00A3E0FDA3E0FEA3E0FF12049878041205DB
:10065B004BD003D002D001D000EB4FFFEA4EFE90FF
:10066B000012EEF0A3EFF0E47B64FAF9F890002EA1
:10067B00E0FCA3E0FDA3E0FEA3E0FF120498AC00B6
:10068B00AD01AE02AF03E47B0AFAF9F812049878D5
:10069B000412054BC004C005C006C007E47B0AFA70
:1006AB00F9F890002EE0FCA3E0FDA3E0FEA3E0FF31
:1006BB00120498AE02AF03D003D002D001D000EFEA
:1006CB004BFFEE4AFE900014EEF0A3EFF0900046C5
:1006DB00E0FCA3E0FDA3E0FEA3E0FFE412039D7B9F
:1006EB00007AF0797F78451202877B007A60796A0D
:1006FB00784612017EE4FBFA79407840120287E4D7
:10070B00FBFA797A784312028790001712055EE4A0
:10071B00FFFE7D7A7C42900017E0F8A3E0F9A3E09E
:10072B00FAA3E0FB12017EE4FBFA797378C31200A3
:10073B008D1203DBEE3395E0FDFC90003412055E69
:10074B00E47BE87A03F9F8900034E0FCA3E0FDA326
:10075B00E0FEA3E0FF120498AC00AD01AE02AF03C4
:10076B00E47B64FAF9F8120498C004C005C006C013
:10077B0007E47BE87A03F9F8900034E0FCA3E0FD92
:10078B00A3E0FEA3E0FF120498780412054BD003FC
:10079B00D002D001D000EB4FFFEA4EFE90001BEED3
:1007AB00F0A3EFF0E47B64FAF9F8900034E0FCA3DB
:1007BB00E0FDA3E0FEA3E0FF120498AC00AD01AE98
:1007CB0002AF03E47B0AFAF9F812049878041205D5
:1007DB004BC004C005C006C007E47B0AFAF9F890C9
:1007EB000034E0FCA3E0FDA3E0FEA3E0FF120498BD
:1007FB00AE02AF03D003D002D001D000EF4BFFEE1F
:0B080B004AFE90001DEEF0A3EFF0226B
:100A310090002EE0FCA3E0FDA3E0FEA3E0FFE412A2
:100A4100039DE4FBFA79C87842120287C004C0050D
:100A5100C006C007900052E0FCA3E0FDA3E0FEA3A6
:100A6100E0FFE412039DD003D002D001D0001200B8
:100A71008990002712055E90000AE0FCA3E0FDA327
:100A8100E0FEA3E0FF900027E0F8A3E0F9A3E0FA7D
:100A9100A3E0FB12008D90000A12055E90004EE06B
:100AA100F8A3E0F9A3E0FAA3E0FB900027E0FCA3A0
:100AB100E0FDA3E0FEA3E0FF1200899000681205AB
:100AC1005E900027E0FCA3E0FDA3E0FEA3E0FF9021
:100AD100004E12055E90000AE0FCA3E0FDA3E0FEDB
:100AE100A3E0FF90003DE0F8A3E0F9A3E0FAA3E062
:100AF100FB12017EC004C005C006C007900027E0BC
:100B0100FCA3E0FDA3E0FEA3E0FF900041E0F8A319
:100B1100E0F9A3E0FAA3E0FB12017ED003D002D0FA
:100B210001D00012008DC004C005C006C0079000AE
:100B310068E0FCA3E0FDA3E0FEA3E0FF900039E044
:100B4100F8A3E0F9A3E0FAA3E0FB12017ED003D001
:100B510002D001D00012008D90006C12055EE4FFFE
:100B6100FEFDFC90006CE0F8A3E0F9A3E0FAA3E03D
:100B7100FB1203246002501BE4FFFEFDFC90006C9D
:100B8100E0F8A3E0F9A3E0FAA3E0FB120324600379
:100B9100020C2790006CE0FCA3E0FDA3E0FEA3E0C3
:100BA100FFE4FBFA79C8784212028790006C1205C3
:100BB1005E90006CE0FCA3E0FDA3E0FEA3E0FF1269
:100BC10003DB900032EFF0E4A3F0FFFEFDFC9000A8
:100BD1006CE0F8A3E0F9A3E0FAA3E0FB12032460C0
:100BE1002240207F9A7E997D997C3E90006CE0F8AE
:100BF100A3E0F9A3E0FAA3E0FB1203245005E4907B
:100C01000032F0E4FFFE7D807C3F90006CE0F8A3B1
:100C1100E0F9A3E0FAA3E0FB1203246010400E9078
:0D0C210000327401F022E4900032F0A3F0E4
:010C2E0022A3
:030083000208165A
:10081600C0E0C0F0C083C082C0D075D000C000C0A8
:0D08260001C002C003C004C005C006C00729
:10083300900067E594F0AF9CAB07900066E5AAF0E3
:10084300900065E5ABF0900064E5ACF0900063E5E3
:10085300ADF0900066E05401FA900063E0FCA3E081
:10086300FDA3E0FEA3E0FF780112053890006312B8
:10087300055EAF02EA6007900063E04480F075C351
:100883000075C27FEBFF75BF008FBEE5BF20E7FB9E
:10089300900067E020E4030209F6900056E5D4F0E7
:1008A300A3E5D5F0A3E5D6F0A3E5D7F0A3E5DAF009
:1008B300A3E5DBF0A3E5DCF0A3E5DDF0900016741F
:1008C30001F0EBB4110D900058E0B41006A3E070F2
:1008D30002D201AF03EB640360030209F6900058F0
:1008E300E0640160030209F6900057E06401707B45
:1008F300900056E024FE601924FE601A24FC601B5D
:1009030024F8601C24F0601D241F701C1200038057
:10091300171200198012120020800D12002E800879
:10092300120035800312003C900056E0900002F064
:10093300900057E0900003F0A37411F090005EE084
:10094300900005F0900012A3E0900006F0900014D0
:10095300A3E0900007F090001BA3E0900008F09044
:10096300001DA3E0900009F00209F6900057E0642F
:100973001160030209F6900056E024FE601924FE7C
:10098300601A24FC601B24F8601C24F0601D241FE3
:10099300701C1200038017120019801212002080AD
:1009A3000D12002E8008120035800312003C9000C7
:1009B30056E0900002F0900057E0900003F0A3741B
:1009C30011F090005EE0900005F0900012A3E0901B
:1009D3000006F0900014A3E0900007F090001BA322
:1009E300E0900008F090001DA3E0900009F07F0163
:1009F300121043900067E05407600664076002D258
:100A030000900067E030E702D200900067E030E634
:030A130002D2000C
:100A1600D007D006D005D004D003D002D001D00034
:0B0A2600D0D0D082D083D0F0D0E032DE
:03000B00020FBE23
:100FBE00C0E0C0F0C083C082C0D075D000C000C0F9
:100FCE0001C002C003C004C005C006C007C28D75B3
:100FDE008A90758CE8120A31D007D006D005D0045D
:100FEE00D003D002D001D000D0D0D082D083D0F0A8
:030FFE00D0E0320E
:03002B0002004E82
:10004E00C0E0C083C082C0D075D000C007C2CF90C0
:10005E00002BE0FFB40103A3800A742D2FF582E478
:10006E003400F583E04410F5BBD007D0D0D082D059
:04007E0083D0E03219
:03004B00020C2F75
:100C2F00C0E0C0F0C083C082C0D075D000C000C08B
:0D0C3F0001C002C003C004C005C006C0070C
:100C4C00C2ED90002BE025E025E0241FF582E43472
:100C5C0000F583C083C082E0F8A3E0F9A3E0FAA317
:100C6C00E0FBAFBDAEBEE4FCFDEB2FFFEA3EFEEDBC
:100C7C0039FDEC38FCD082D08312055E90002BE05D
:100C8C0064016003020D1B900001E024FFF0900052
:100C9C0000E034FFF0E07002A3E0706C9000000400
:100CAC00F0A3E4F0900070F0900000E0FEA3E0FBF5
:100CBC00AA06E4F9F8900070E025E025E0241FF581
:100CCC0082E43400F583E0FCA3E0FDA3E0FEA3E0A6
:100CDC00FF120498900070E0FB25E025E02446F517
:100CEC0082E43400F58312055EEB25E025E0241F39
:100CFC00F582E43400F58312056A000000009000D0
:100D0C0070E004F0E0B402A090002BE4F0800690B8
:050D1C00002BE004F0D3
:100D2100D007D006D005D004D003D002D001D00026
:0B0D3100D0D0D082D083D0F0D0E032D0
:0700030043904043A040229E
:0700190043904043A0402288
:0700200043904043A0402281
:07002E0043904043A0402273
:0700350043904043A040226C
:07003C005390BF53A0BF2247
:10008600020447E86480F8E933E83360110460F05D
:10009600ED33EC337009E8FCE9FDEAFEEBFF2204E0
:1000A60060DED3EB9FEA9EE99DE8C2E78CF0C2F7DB
:1000B60095F0400CE8CCF8E9CDF9EACEFAEBCFFBA7
:1000C60012041285D0F05804700320D5B3E80470EA
:1000D600075002B2D502045192D5EC0460F7E4CC85
:1000E600C0E0C398F8603B94186008400DD0E0FB70
:1000F600020429E4FBFAC9FC8028E830E406E4C9D6
:10010600FBE4CAFCE830E305E4C9CACBFCE85407C3
:100116006010F8C3E913F9EA13FAEB13FBEC13FCCE
:10012600D8F130F52FC3E49CFCEF9BFFEE9AFEED71
:1001360099FDD0E0FBEF4E4D4C701222DB0302041A
:100146004EEC2CFCEF33FFEE33FEED33FDED30E7E6
:10015600EB020429EF2BFFEE3AFEED39FDD0E0FB72
:1001660050130BBB0003020451ED13FDEE13FEEF1B
:0801760013FFEC13FC02042945
:10017E00EC4D6011E8497017ED33EC3304600DE47B
:10018E00FCFFFEFD22E933E8330470F80204471247
:10019E00041258046009E4CC248150062850090248
:1001AE00045128400302044EC0E0EB4A7044B9806B
:1001BE0006D0E0FB02043DEF4E701CBD8008EBFF45
:1001CE00EAFEE9FD80EBE98DF0A4FEE5F0020267A0
:1001DE00E9CDF9EAFEEBFFEF89F0A4FCE5F0CE895C
:1001EE00F0A42EFFE435F0CD89F0A42DFEE435F019
:1001FE008067EF4E7005BD80D780C3EF8BF0A4AC47
:10020E00F0EE8BF0A42CFCE435F0F8EF8AF0A42C81
:10021E00E5F038FCE433CB8DF0A42CFCE5F03BF894
:10022E00EE8AF0A42CFCE5F038F8E433CF89F0A484
:10023E002CFCE5F038CF3400CE89F0A42FFFE5F08A
:10024E003EFEE433C98DF0A42EFEE5F039CD8AF0E2
:10025E00A42FFFE5F03EFEE43DFD33D0E0FB50075A
:10026E000BBB000F020451EC2CFCEF33FFEE33FE00
:06027E00ED33FD0204292E
:10028400020451EC5D046005E8590470030204475C
:10029400120412580460F6EC4860F2EC7004FDFE9F
:1002A400FF22C860DB2481C85009C398600250064D
:1002B40002044E9850CAF582E9294B4A7005AB8274
:1002C40002043D75F0007C1A7880C3EF9BEE9AED32
:1002D40099400DC3EF9BFFEE9AFEED99FDE842F0C5
:1002E400DC23ACF0D0E0FFD0E0FED0E0FDAB822018
:1002F400E7101BEB60BAEC2CFCEF33FFEE33FEEDA2
:1003040033FD020429E803F830E705C0F075F00076
:10031400EF2FFFEE33FEED33FD40B830E7C280AA85
:1003240074F8CC6480CCC86480C8F58204604FC380
:10033400EB9FF5F0EA9E42F0E99D42F0E89C45F01F
:10034400603C501DE5825FFFE582D313CB5BCBF4A9
:100354002B5582FB50280ABA002409B900200880D2
:100364001DE5825BFBE582D313CF5FCFF4C3132F6C
:100374005582FF50090EBE00050DBD00010CC3EBF4
:100384009FF5F0EA9E42F0E99D42F0E89C45F0605A
:0903940007CC4820E701B3EC227C
:10039D0075F020800E75F010800575F0087D007EDB
:1003AD00007F003392D530D50312052AEC3340106F
:1003BD00EF33FFEE33FEED33FDEC33FCD5F0ED22E4
:0E03CD00E5F0247EA2D513CC92E7CDCEFF2220
:1003DB00EDD2E7CD33EC3392D524814006E4FFFE1A
:1003EB00FDFC22FCE4CFCECDCC24E0501174FF8079
:1003FB00EDC3CC13CCCD13CDCE13CECF13CF047016
:07040B00F030D5DE02052AE6
:10041200E9D2E7C933E833F892D5EDD2E7CD33EC30
:0704220033FC5002B2D522A9
:10042900EC30E7100FBF000C0EBE00080DBD000434
:100439000BEB6014A2D5EB13FCED92E7FD2274FFE0
:10044900FCFDFEFF22E480F8A2D574FF13FC7D8039
:03045900E480EF4D
:100EEB00020F6BE493A3F8E493A34003F68001F2A3
:100EFB0008DFF48029E493A3F85407240CC8C33308
:100F0B00C4540F4420C8834004F456800146F6DFD6
:100F1B00E4800B0102040810204080901081E47ED5
:100F2B00019360BCA3FF543F30E509541FFEE493CB
:100F3B00A360010ECF54C025E060A840B8E493A392
:100F4B00FAE493A3F8E493A3C8C582C8CAC583CABD
:100F5B00F0A3C8C582C8CAC583CADFE9DEE780BE75
:0110BE000031
:10045C0075F008758200EF2FFFEE33FECD33CDCC57
:10046C0033CCC58233C5829BED9AEC99E5829840DA
:10047C000CF582EE9BFEED9AFDEC99FC0FD5F0D6B7
:10048C00E4CEFBE4CDFAE4CCF9A88222B800C1B9E1
:10049C000059BA002DEC8BF084CFCECDFCE5F0CB1F
:1004AC00F97818EF2FFFEE33FEED33FDEC33FCEB58
:1004BC0033FB10D703994004EB99FB0FD8E5E4F913
:1004CC00FA227818EF2FFFEE33FEED33FDEC33FC00
:1004DC00C933C910D7059BE99A4007EC9BFCE99AF4
:1004EC00F90FD8E0E4C9FAE4CCFB2275F010EF2F39
:1004FC00FFEE33FEED33FDCC33CCC833C810D70739
:10050C009BEC9AE899400AED9BFDEC9AFCE899F873
:0E051C000FD5F0DAE4CDFBE4CCFAE4C8F92206
:0E052A00C3E49FFFE49EFEE49DFDE49CFC22E2
:10053800E8600FECC313FCED13FDEE13FEEF13FFA1
:03054800D8F122C5
:10054B00E8600FEFC333FFEE33FEED33FDEC33FC0E
:03055B00D8F122B2
:0C055E00ECF0A3EDF0A3EEF0A3EFF02210
:10056A00A8828583F0D083D0821205811205811278
:10057A000581120581E473E493A3C583C5F0C5839D
:10058A00C8C582C8F0A3C583C5F0C583C8C582C8DB
:01059A00223E
:00000001FF
