:030000000203DE1A
:0C03DE00787FE4F6D8FD7581200204252C
:100003003F065B4F666D7D077F6FBF86DBCFE6EDF7
:10001300FD87FFEFC0F9A4B0999282F8809088839E
:08002300C6A1868E89888CFFBE
:0A05130090001793F5B07F017E0001
:10051D00D3EF9400EE6480948040147D647C00EDF4
:0F052D001D70011CED4C70F7EF1F70E41E80E194
:01053C00229C
:10025100A907AA0553B5FDE4F5B07F01FE12051DFE
:1002610043B50212051953B5FD53B5FEE912051345
:1002710043B50112051953B5FE53B5FD75B0011211
:10028100051943B50212051953B5FD7F0A7E001207
:10029100051D53B5FDE4F5B07F01FE12051D43B503
:1002A1000212051953B5FD53B5FEEA12051343B504
:1002B1000112051953B5FE53B5FD75B002120519AA
:1002C10043B50212051953B5FD53B5FD7F0A7E00F2
:1002D10012051DE4F5B07F01FE12051D43B50212A2
:1002E100051953B5FD53B5FEEB12051343B50112C4
:1002F100051953B5FE53B5FD75B00412051943B583
:100301000212051953B5FD7F0A7E0012051DE4F5A1
:10031100B07F01FE12051D43B50212051953B5FD4B
:1003210053B5FE900025E012051343B501120519DE
:1003310053B5FE53B5FD75B00812051943B5021248
:0C034100051953B5FD7F0A7E0002051D62
:1004E5004A000FC0F9A4B0999282F88090C10041EA
:1004F500002100480000F102030405060708410039
:0D050500090044000B0001020341000A0040
:10002E00E4F5A753D9BF12062812053D12034D124F
:10003E0004A812057C43E702D2AF43A0C09000256E
:10004E007412F07B0C7D037F01120251900009E0C7
:0E005E0060EB7F0112046AE4900009F080DF7D
:0A062800AFA775A70F75A1878FA774
:0106320022A5
:10053D00AFA775A70F43A44043A50853A5BF43A676
:0F054D00C075AEFF43AF0375E10275C7408FA7BE
:01055C00227C
:1004A800AFA7E4F5A743BC0175BE0475BD6C75BE66
:1004B8000775BDA075BE0875BD0153BCFE75E81073
:1004C80075D13390000AE0240BF582E43400F583FB
:0C04D800E04410F5BB75BC38D2EF8FA7D4
:0104E40022F5
:10057C00AFA7E4F5A7538ECF53C8FE75CBC2F5CA0F
:0D058C0085CBCD85CACC75C804D2AD8FA734
:01059900223F
:10034D00AFA775A70C43C00143C04E759B14759A9A
:10035D000275C30075C2F0E4F5C5F5C475C75F75C8
:10036D00C6FCF5CBF5CA75D31475D28875CD8075DD
:10037D00CC50F5BF75BE14E5BF20E7FB75CD80757C
:10038D00CC0C75BF0075BE03E5BF20E7FB75D30030
:10039D0075D28875CDA075CC0475BF0075BE01E50D
:1003AD00BF20E7FBE4FEEE6401601BEE6403601604
:1003BD00EE64146011E4F5CDF5CCEEFD75BF008D46
:1003CD00BEE5BF20E7FB0EEEB420DB53C0BE8FA70A
:0103DD0022FD
:10046A00AEA775A70C900000E0F5D4A3E0F5D5A3DC
:10047A00E0F5D6A3E0F5D7A3E0F5DAA3E0F5DBA330
:10048A00E0F5DCA3E0F5DD75C30075C287EFFD7505
:0D049A00BF008DBEE5BF20E7FBAF068FA7BA
:0104A7002232
:03008300020086F2
:10008600C0E0C0F0C083C082C0D075D000C000C040
:0D00960001C002C003C004C005C006C007C1
:1000A30090002AE594F0AF9CAB07900029E5AAF0F5
:1000B300900028E5ABF0900027E5ACF0900026E532
:1000C300ADF0900029E05401FA900026E0FCA3E093
:1000D300FDA3E0FEA3E0FF780112055D9000261268
:1000E3000570AF02EA6007900026E04480F075C314
:1000F3000075C27FEBFF75BF008FBEE5BF20E7FB36
:1001030090002AE020E403020216900019E5D4F0DF
:10011300A3E5D5F0A3E5D6F0A3E5D7F0A3E5DAF0A0
:10012300A3E5DBF0A3E5DCF0A3E5DDF090000874C4
:1001330001F0EBB4141090001BE0B41209A3E070BB
:100143000590000904F0AF03EB6403600302021699
:1001530090001BE06401600302021690001AE06441
:10016300017056900019E024FE601924FE601A24E1
:10017300FC601B24F8601C24F0601D241F701C12FB
:1001830005C280171205D380121205E4800D1205F3
:10019300F580081206068003120617900019E090F6
:1001A3000000F090001AE0900001F0A37414F090A6
:1001B3000021E0900003F0805A90001AE06402707E
:1001C3002E900019E024FE600D24FE600E240370BF
:1001D3000D12006C800812059A80031205AE900080
:1001E30019E0900000F090001AE090000180129056
:1001F300001AE0FFB4111C900019E0900000F0A376
:10020300EFF0A37414F0900021E0900003F07F015D
:1002130012046A90002AE05407600664076002D261
:100223000090002AE030E702D20090002AE030E696
:0302330002D200F4
:10023600D007D006D005D004D003D002D001D0001C
:0B024600D0D0D082D083D0F0D0E032C6
:03002B0002008050
:03008000C2CF32BA
:1005C20043A08043904090001AE030E2035390BF72
:0105D2002206
:1005D30053A07F43904090001AE030E2035390BF52
:0105E30022F5
:1005E40053A07F43904090001AE030E2035390BF41
:0105F40022E4
:1005F50053A07F43904090001AE030E2035390BF30
:0106050022D2
:1006060053A07F43904090001AE030E2035390BF1E
:0106160022C1
:1006170053A07F43904090001AE030E2035390BF0D
:0106270022B0
:10006C0053A07F43A04043904090001AE030E2033D
:04007C005390BF22BC
:10059A0053A07F43A04043904090001AE030E2030A
:0405AA005390BF2289
:1005AE0053A07F53A0BF43904090001AE030E20367
:0405BE005390BF2275
:1003EA0002002EE493A3F8E493A34003F68001F2FB
:1003FA0008DFF48029E493A3F85407240CC8C33314
:10040A00C4540F4420C8834004F456800146F6DFE2
:10041A00E4800B01020408102040809004E5E47E89
:10042A00019360BCA3FF543F30E509541FFEE493D7
:10043A00A360010ECF54C025E060A840B8E493A39E
:10044A00FAE493A3F8E493A3C8C582C8CAC583CAC9
:10045A00F0A3C8C582C8CAC583CADFE9DEE780BE81
:0105120000E8
:10055D00E8600FECC313FCED13FDEE13FEEF13FF7C
:03056D00D8F122A0
:0C057000ECF0A3EDF0A3EEF0A3EFF022FE
:00000001FF
