:030000000203DE1A
:0C03DE00787FE4F6D8FD7581200204252C
:100621003F065B4F666D7D077F6FBF86DBCFE6EDD3
:10063100FD87FFEFC0F9A4B0999282F8809088837A
:08064100C6A1868E89888CFF9A
:0A05F70090063593F5B07F017E00F9
:10060100D3EF9400EE6480948040147D647C00ED0F
:0F0611001D70011CED4C70F7EF1F70E41E80E1AF
:0106200022B7
:10025100A907AA0553B5FDE4F5B07F01FE12060119
:1002610043B5021205FD53B5FD53B5FEE91205F77D
:1002710043B5011205FD53B5FE53B5FD75B001122D
:1002810005FD43B5021205FD53B5FD7F0A7E00123F
:10029100060153B5FDE4F5B07F01FE12060143B539
:1002A100021205FD53B5FD53B5FEEA1205F743B53C
:1002B100011205FD53B5FE53B5FD75B0021205FDE2
:1002C10043B5021205FD53B5FD53B5FD7F0A7E000E
:1002D100120601E4F5B07F01FE12060143B50212D8
:1002E10005FD53B5FD53B5FEEB1205F743B50112FC
:1002F10005FD53B5FE53B5FD75B0041205FD43B5BB
:10030100021205FD53B5FD7F0A7E00120601E4F5D8
:10031100B07F01FE12060143B5021205FD53B5FD82
:1003210053B5FE900029E01205F743B5011205FD12
:1003310053B5FE53B5FD75B0081205FD43B5021264
:0C03410005FD53B5FD7F0A7E0002060199
:100528004A0012C0F9A4B0999282F88090C10041A3
:10053800002500480000F1020304050607084100F1
:10054800090044000B0001020341000A0041001C9D
:0D055800004100116441000F00410010003F
:1004AC00E4F5A753D9BF1206E51205CB12034D1282
:1004BC00059A12046A43E702D2AF43A0C090002908
:1004CC007412F07B0C7D037F01120251900009E045
:0E04DC0060EB7F011204EAE4900009F080DF7B
:0A06E500AFA775A70F75A1878FA7B7
:0106EF0022E8
:1005CB00AFA775A70F43D40153F1FE43A44043A536
:1005DB000853A5BF43D60F53F3F043A6C075AEFF28
:0B05EB0043AF0375E10275C7408FA706
:0105F60022E2
:10059A00AFA7E4F5A743BC0175BE0475BD6C75BE73
:1005AA000775BDA075BE0875BD0153BCFE75E8038D
:1005BA0075D13375BB0A75BC3843E604D2EF8FA7F1
:0105CA00220E
:10046A00AFA7E4F5A7F58EF588758921758A907589
:10047A008CE8D28CD2A9F5C8438E1075CBF675CA12
:10048A009F74FFF5CDF5CCD2ADD2CAD2BDE4F591B9
:10049A007592307593F87594307595F84391048F79
:0104AA00A7AA
:0104AB00222E
:10034D00AFA775A70C43C00143C04E759B14759A9A
:10035D000275C30075C2F0E4F5C5F5C475C75F75C8
:10036D00C6FCF5CBF5CA75D31475D28875CD8075DD
:10037D00CC50F5BF75BE14E5BF20E7FB75CD80757C
:10038D00CC0C75BF0075BE03E5BF20E7FB75D30030
:10039D0075D28875CDA075CC0475BF0075BE01E50D
:1003AD00BF20E7FBE4FEEE6401601BEE6403601604
:1003BD00EE64146011E4F5CDF5CCEEFD75BF008D46
:1003CD00BEE5BF20E7FB0EEEB420DB53C0BE8FA70A
:0103DD0022FD
:1004EA00AEA775A70C900000E0F5D4A3E0F5D5A35C
:1004FA00E0F5D6A3E0F5D7A3E0F5DAA3E0F5DBA3B0
:10050A00E0F5DCA3E0F5DD75C30075C287EFFD7584
:0D051A00BF008DBEE5BF20E7FBAF068FA739
:0105270022B1
:03008300020086F2
:10008600C0E0C0F0C083C082C0D075D000C000C040
:0D00960001C002C003C004C005C006C007C1
:1000A30090002EE594F0AF9CAB0790002DE5AAF0ED
:1000B30090002CE5ABF090002BE5ACF090002AE526
:1000C300ADF090002DE05401FA90002AE0FCA3E08B
:1000D300FDA3E0FEA3E0FF780112064990002A1277
:1000E300065CAF02EA600790002AE04480F075C323
:1000F3000075C27FEBFF75BF008FBEE5BF20E7FB36
:1001030090002EE020E40302021690001DE5D4F0D7
:10011300A3E5D5F0A3E5D6F0A3E5D7F0A3E5DAF0A0
:10012300A3E5DBF0A3E5DCF0A3E5DDF090000874C4
:1001330001F0EBB4141090001FE0B41209A3E070B7
:100143000590000904F0AF03EB6403600302021699
:1001530090001FE06401600302021690001EE06439
:1001630001705690001DE024FE601924FE601A24DD
:10017300FC601B24F8601C24F0601D241F701C12FB
:100183000071801712069080121206A1800D1206CC
:10019300B280081206C380031206D490001DE090BB
:1001A3000000F090001EE0900001F0A37414F090A2
:1001B3000025E0900003F0805A90001EE064027076
:1001C3002E90001DE024FE600D24FE600E240370BB
:1001D3000D12000E8008120668800312067C900040
:1001E3001DE0900000F090001EE09000018012904E
:1001F300001EE0FFB4111C90001DE0900000F0A36E
:10020300EFF0A37414F0900025E0900003F07F0159
:100213001204EA90002EE05407600664076002D2DD
:100223000090002EE030E702D20090002EE030E68E
:0302330002D200F4
:10023600D007D006D005D004D003D002D001D0001C
:0B024600D0D0D082D083D0F0D0E032C6
:03000B0002002EC2
:10002E00C0E0C0F0C083C082C0D075D000C000C098
:10003E0001C002C003C004C005C006C007C28D7552
:10004E008A90758CE8120000D007D006D005D00437
:10005E00D003D002D001D000D0D0D082D083D0F047
:03006E00D0E032AD
:03002B0002056665
:10056600C0E0C083C082C0D075D000C007C2CF90A3
:10057600000AE0FFB40303A3800A740C2FF582E49B
:100586003400F583E04410F5BBD007D0D0D082D03C
:0405960083D0E032FC
:1000710043A08043904090001EE030E2035390BFC4
:01008100225C
:1006900053A07F43904090001EE030E2035390BF90
:0106A0002237
:1006A10053A07F43904090001EE030E2035390BF7F
:0106B1002226
:1006B20053A07F43904090001EE030E2035390BF6E
:0106C2002215
:1006C30053A07F43904090001EE030E2035390BF5D
:0106D3002204
:1006D40053A07F43904090001EE030E2035390BF4C
:0106E40022F3
:10000E0053A07F43A04043904090001EE030E20397
:04001E005390BF221A
:1006680053A07F43A04043904090001EE030E20337
:040678005390BF22BA
:10067C0053A07F53A0BF43904090001EE030E20394
:04068C005390BF22A6
:1003EA000204ACE493A3F8E493A34003F68001F279
:1003FA0008DFF48029E493A3F85407240CC8C33314
:10040A00C4540F4420C8834004F456800146F6DFE2
:10041A00E4800B0102040810204080900528E47E45
:10042A00019360BCA3FF543F30E509541FFEE493D7
:10043A00A360010ECF54C025E060A840B8E493A39E
:10044A00FAE493A3F8E493A3C8C582C8CAC583CAC9
:10045A00F0A3C8C582C8CAC583CADFE9DEE780BE81
:010565000095
:10064900E8600FECC313FCED13FDEE13FEEF13FF8F
:03065900D8F122B3
:0C065C00ECF0A3EDF0A3EEF0A3EFF02211
:00000001FF
