:03000000020E30BD
:0C0E3000787FE4F6D8FD758120020E7773
:100F87004A0039C0F9A4B0999282F88090C1004113
:100F9700006800480002F102030405060708420042
:100FA7002C000141002B0041004F004100386441F3
:100FB7000032004100330044000E000000004400EE
:0A0FC70017000000004200000100C6
:1010D500E4F5A753D9BF12000E121133120D891270
:1010E50010571200009000501205BF00000000903C
:1010F50000541205BF0000000043E702D2AF43A031
:06110500C01205F080FBA2
:0A000E00AFA775A70F75A1878FA794
:0100180022C5
:10113300AFA775A70F43A44043A50853A5BF43A674
:0F114300C075AEFF43AF0375E10275C7408FA7BC
:01115200227A
:10105700AFA7E4F5A743BC0175BE0475BD4875BECF
:101067000775BDD075BE0875BD0153BCFE75E81088
:1010770075D10390002BE0242CF582E43400F5832E
:0F108700E04410F5BB75BC3843E604D2EF8FA7E9
:011096002237
:10101500AFA7E4F5A7F58EF588758921758A9075D2
:101025008CE8D28CD2A9F5C8438E1075CBF675CA5B
:101035009F74FFF5CDF5CCD2ADD2CAD2BDE4F59102
:101045007592307593F87594307595F84391048FC2
:01105500A7F3
:011056002277
:100D8900AFA775A70C43C00143C04E759B14759A54
:100D99000275C30075C2F0E4F5C5F5C475C75F7582
:100DA900C6FCF5CBF5CA75D31475D28875CD807597
:100DB900CC40F5BF75BE10E5BF20E7FB75CD80754A
:100DC900CC0C75BF0075BE03E5BF20E7FB75D300EA
:100DD90075D28875CDA075CC4475BF0075BE11E577
:100DE900BF20E7FB75CDA075CC0475BF0075BE01AA
:100DF900E5BF20E7FBE4FEEE64106020EE641160BD
:100E09001BEE64036016EE64016011E4F5CDF5CCC8
:100E1900EEFD75BF008DBEE5BF20E7FB0EEEB420E9
:060E2900D653C0BE8FA7E6
:010E2F0022A0
:10109700AEA775A70C900002E0F5D4A3E0F5D5A3A1
:1010A700E0F5D6A3E0F5D7A3E0F5DAA3E0F5DBA3F7
:1010B700E0F5DCA3E0F5DD75C30075C287EFFD75CC
:0D10C700BF008DBEE5BF20E7FBAF068FA781
:0110D40022F9
:1005F000900054E0FCA3E0FDA3E0FEA3E0FFE412C2
:10060000039D7B007AF0797F78451202877B007A20
:1006100060796A784612017EE4FBFA7940784012EC
:100620000287E4FBFA797A784312028790000E126F
:1006300005B3E4FFFE7D7A7C4290000EE0F8A3E073
:10064000F9A3E0FAA3E0FB12017EE4FBFA797378E8
:10065000C312008D1203DBEE3395E0FDFC90002EFB
:100660001205B3E47BE87A03F9F890002EE0FCA3CE
:10067000E0FDA3E0FEA3E0FF1204EDAC00AD01AE8F
:1006800002AF03E47B64FAF9F81204EDC004C0057C
:10069000C006C007E47BE87A03F9F890002EE0FC7E
:1006A000A3E0FDA3E0FEA3E0FF1204ED7804120531
:1006B000A0D003D002D001D000EB4FFFEA4EFE9055
:1006C0000012EEF0A3EFF0E47B64FAF9F890002E4C
:1006D000E0FCA3E0FDA3E0FEA3E0FF1204EDAC000C
:1006E000AD01AE02AF03E47B0AFAF9F81204ED782B
:1006F000041205A0C004C005C006C007E47B0AFAC6
:10070000F9F890002EE0FCA3E0FDA3E0FEA3E0FFDB
:100710001204EDAE02AF03D003D002D001D000EF3F
:100720004BFFEE4AFE900014EEF0A3EFF090005065
:10073000E0FCA3E0FDA3E0FEA3E0FFE412039D7B49
:10074000007AF0797F78451202877B007A60796AB7
:10075000784612017EE4FBFA79407840120287E481
:10076000FBFA797A78431202879000171205B3E4F6
:10077000FFFE7D7A7C42900017E0F8A3E0F9A3E049
:10078000FAA3E0FB12017EE4FBFA797378C312004E
:100790008D1203DBEE3395E0FDFC9000341205B3BF
:1007A000E47BE87A03F9F8900034E0FCA3E0FDA3D1
:1007B000E0FEA3E0FF1204EDAC00AD01AE02AF031A
:1007C000E47B64FAF9F81204EDC004C005C006C069
:1007D00007E47BE87A03F9F8900034E0FCA3E0FD3D
:1007E000A3E0FEA3E0FF1204ED78041205A0D003FD
:1007F000D002D001D000EB4FFFEA4EFE90001BEE7E
:10080000F0A3EFF0E47B64FAF9F8900034E0FCA385
:10081000E0FDA3E0FEA3E0FF1204EDAC00AD01AEED
:1008200002AF03E47B0AFAF9F81204ED780412052A
:10083000A0C004C005C006C007E47B0AFAF9F8901E
:100840000034E0FCA3E0FDA3E0FEA3E0FF1204ED12
:10085000AE02AF03D003D002D001D000EF4BFFEEC9
:0B0860004AFE90001DEEF0A3EFF02216
:10086B0090002EE0FCA3E0FDA3E0FEA3E0FFE4126A
:10087B00039DE4FBFA79C87842120287C004C005D5
:10088B00C006C00790005CE0FCA3E0FDA3E0FEA364
:10089B00E0FFE412039DD003D002D001D000120080
:1008AB00899000271205B390000AE0FCA3E0FDA39A
:1008BB00E0FEA3E0FF900027E0F8A3E0F9A3E0FA45
:1008CB00A3E0FB12008D90000A1205B3900058E0D4
:1008DB00F8A3E0F9A3E0FAA3E0FB900027E0FCA368
:1008EB00E0FDA3E0FEA3E0FF12008990006E12056D
:1008FB00B3900027E0FCA3E0FDA3E0FEA3E0FF9094
:10090B0000581205B390000AE0FCA3E0FDA3E0FE43
:10091B00A3E0FF900047E0F8A3E0F9A3E0FAA3E01F
:10092B00FB12017EC004C005C006C007900027E083
:10093B00FCA3E0FDA3E0FEA3E0FF90004BE0F8A3D7
:10094B00E0F9A3E0FAA3E0FB12017ED003D002D0C2
:10095B0001D00012008DC004C005C006C007900076
:10096B006EE0FCA3E0FDA3E0FEA3E0FF900043E0FC
:10097B00F8A3E0F9A3E0FAA3E0FB12017ED003D0C9
:10098B0002D001D00012008D9000721205B3E4FF6B
:10099B00FEFDFC900072E0F8A3E0F9A3E0FAA3E0FF
:1009AB00FB12032460025003020A49900072E0FC20
:1009BB00A3E0FDA3E0FEA3E0FFE4FBFA79C87842D5
:1009CB001202879000721205B3900072E0FCA3E054
:1009DB00FDA3E0FEA3E0FF1203DB900032EFF0E497
:1009EB00A3F0FFFEFDFC900072E0F8A3E0F9A3E09A
:1009FB00FAA3E0FB120324602240207F9A7E997DAC
:100A0B00997C3E900072E0F8A3E0F9A3E0FAA3E032
:100A1B00FB1203245005E4900032F0E4FFFE7D80CE
:100A2B007C3F900072E0F8A3E0F9A3E0FAA3E0FBAF
:100A3B001203246010400E9000327401F022E490F7
:050A4B000032F0A3F0F1
:010A50002283
:03008300020A511D
:100A5100C0E0C0F0C083C082C0D075D000C000C06B
:0D0A610001C002C003C004C005C006C007EC
:100A6E0090006DE594F0AF9CAB0790006CE5AAF09A
:100A7E0090006BE5ABF090006AE5ACF0900069E594
:100A8E00ADF090006CE05401FA900069E0FCA3E038
:100A9E00FDA3E0FEA3E0FF780112058D9000691220
:100AAE0005B3AF02EA6007900069E04480F075C3B9
:100ABE000075C27FEBFF75BF008FBEE5BF20E7FB61
:100ACE0090006DE020E403020B77900060E5D4F017
:100ADE00A3E5D5F0A3E5D6F0A3E5D7F0A3E5DAF0CC
:100AEE00A3E5DBF0A3E5DCF0A3E5DDF090001674E2
:100AFE0001F0AF03EB64037070900063E06401706B
:100B0E0068900061E064017060900060E024FE6017
:100B1E001924FE601A24FC601B24F8601C24F0606B
:100B2E001D241F701C120019801712002E80121225
:100B3E000038800D12004E800812005880031200FB
:100B4E0003900060E0900002F0900061E0900003DE
:100B5E00F09000057410F0900068E0900006F07FB1
:100B6E00011210977F1112109790006DE0540760DC
:100B7E000664076002D20090006DE030E702D200FA
:090B8E0090006DE030E602D20097
:100B9700D007D006D005D004D003D002D001D000B2
:0B0BA700D0D0D082D083D0F0D0E0325C
:03000B00020FD20F
:100FD200C0E0C0F0C083C082C0D075D000C000C0E5
:100FE20001C002C003C004C005C006C007C28D759F
:100FF2008A90758CE812086BD007D006D005D00411
:10100200D003D002D001D000D0D0D082D083D0F093
:03101200D0E032F9
:03002B00020F2C95
:100F2C00C0E0C0F0C083C082C0D075D000C000C08B
:100F3C0001C002C003C004C005C006C0077F027E0A
:100F4C0000120CBFC2CF90002BE0FFB40103A380B2
:100F5C000A742D2FF582E43400F583E04410F5BBC0
:100F6C00D007D006D005D004D003D002D001D000D9
:0B0F7C00D0D0D082D083D0F0D0E03283
:03006B00020EBCC6
:100EBC00C0E0C0F0C083C082C0D075D000C006C0F6
:100ECC000753917F900032E075F064A4F0A3E075B5
:100EDC00F064A4F090004FE004F0900038E0FF9034
:100EEC00004FE0D39F4002E4F0900032E0FF90000E
:100EFC004FE0FEC39F500553A0BF800343A040901A
:100F0C000033E0FFEEC39F500553A07F800343A046
:100F1C0080D007D006D0D0D082D083D0F0D0E032B1
:03004B00020BB2F3
:100BB200C0E0C0F0C083C082C0D075D000C000C009
:0D0BC20001C002C003C004C005C006C0078A
:100BCF00C2ED90002BE025E025E0241FF582E434F0
:100BDF0000F583C083C082E0F8A3E0F9A3E0FAA395
:100BEF00E0FBAFBDAEBEE4FCFDEB2FFFEA3EFEED3A
:100BFF0039FDEC38FCD082D0831205B390002BE086
:100C0F0064016003020C9E900001E024FFF090004D
:100C1F0000E034FFF0E07002A3E0706C900000047D
:100C2F00F0A3E4F0900078F0900000E0FEA3E0FB6A
:100C3F00AA06E4F9F8900078E025E025E0241FF5F6
:100C4F0082E43400F583E0FCA3E0FDA3E0FEA3E023
:100C5F00FF1204ED900078E0FB25E025E02450F52D
:100C6F0082E43400F5831205B3EB25E025E0241F61
:100C7F00F582E43400F5831205BF000000009000F8
:100C8F0078E004F0E0B402A090002BE4F08006902E
:050C9F00002BE004F051
:100CA400D007D006D005D004D003D002D001D000A4
:0B0CB400D0D0D082D083D0F0D0E0324E
:08110B0075B502F5B57F0AFE7F
:10111300E4FDFCC3ED9FEC9E5015E4FBFA0BBB0012
:0F112300010AEB64644A70F50DBD00010C80E415
:01113200229A
:100CBF00900076EEF0A3EFF07C037DE812045C74F5
:100CCF00392FF58274003EF583E042B075B501E42B
:100CDF00F5B575B00112110B75B000900076E0FEFE
:100CEF00A3E0FF7C037DE812045C7E007F64CFCD20
:100CFF00CFCECCCE12045C74392FF58274003EF542
:100D0F0083E042B075B501E4F5B575B00212110B71
:100D1F00E4F5B0900076E0FEA3E0FF7C007D641266
:100D2F00045C7E007F0ACFCDCFCECCCE12045C7494
:100D3F00392FF58274003EF583E042B075B501E4BA
:100D4F00F5B575B00412110B75B000E4F5B0900055
:100D5F0076E0FEA3E0FF7C007D0A12045C74392D5F
:100D6F00F58274003CF583E042B075B501E4F5B54A
:0A0D7F0075B00812110B75B00022C8
:0A0019005390BF53A0BF43A0802204
:0A002E005390BF43A04053A07F226F
:0A0038005390BF43A04053A07F2265
:0A004E005390BF43A04053A07F224F
:0A0058005390BF43A04053A07F2245
:0100030022DA
:10008600020447E86480F8E933E83360110460F05D
:10009600ED33EC337009E8FCE9FDEAFEEBFF2204E0
:1000A60060DED3EB9FEA9EE99DE8C2E78CF0C2F7DB
:1000B60095F0400CE8CCF8E9CDF9EACEFAEBCFFBA7
:1000C60012041285D0F05804700320D5B3E80470EA
:1000D600075002B2D502045192D5EC0460F7E4CC85
:1000E600C0E0C398F8603B94186008400DD0E0FB70
:1000F600020429E4FBFAC9FC8028E830E406E4C9D6
:10010600FBE4CAFCE830E305E4C9CACBFCE85407C3
:100116006010F8C3E913F9EA13FAEB13FBEC13FCCE
:10012600D8F130F52FC3E49CFCEF9BFFEE9AFEED71
:1001360099FDD0E0FBEF4E4D4C701222DB0302041A
:100146004EEC2CFCEF33FFEE33FEED33FDED30E7E6
:10015600EB020429EF2BFFEE3AFEED39FDD0E0FB72
:1001660050130BBB0003020451ED13FDEE13FEEF1B
:0801760013FFEC13FC02042945
:10017E00EC4D6011E8497017ED33EC3304600DE47B
:10018E00FCFFFEFD22E933E8330470F80204471247
:10019E00041258046009E4CC248150062850090248
:1001AE00045128400302044EC0E0EB4A7044B9806B
:1001BE0006D0E0FB02043DEF4E701CBD8008EBFF45
:1001CE00EAFEE9FD80EBE98DF0A4FEE5F0020267A0
:1001DE00E9CDF9EAFEEBFFEF89F0A4FCE5F0CE895C
:1001EE00F0A42EFFE435F0CD89F0A42DFEE435F019
:1001FE008067EF4E7005BD80D780C3EF8BF0A4AC47
:10020E00F0EE8BF0A42CFCE435F0F8EF8AF0A42C81
:10021E00E5F038FCE433CB8DF0A42CFCE5F03BF894
:10022E00EE8AF0A42CFCE5F038F8E433CF89F0A484
:10023E002CFCE5F038CF3400CE89F0A42FFFE5F08A
:10024E003EFEE433C98DF0A42EFEE5F039CD8AF0E2
:10025E00A42FFFE5F03EFEE43DFD33D0E0FB50075A
:10026E000BBB000F020451EC2CFCEF33FFEE33FE00
:06027E00ED33FD0204292E
:10028400020451EC5D046005E8590470030204475C
:10029400120412580460F6EC4860F2EC7004FDFE9F
:1002A400FF22C860DB2481C85009C398600250064D
:1002B40002044E9850CAF582E9294B4A7005AB8274
:1002C40002043D75F0007C1A7880C3EF9BEE9AED32
:1002D40099400DC3EF9BFFEE9AFEED99FDE842F0C5
:1002E400DC23ACF0D0E0FFD0E0FED0E0FDAB822018
:1002F400E7101BEB60BAEC2CFCEF33FFEE33FEEDA2
:1003040033FD020429E803F830E705C0F075F00076
:10031400EF2FFFEE33FEED33FD40B830E7C280AA85
:1003240074F8CC6480CCC86480C8F58204604FC380
:10033400EB9FF5F0EA9E42F0E99D42F0E89C45F01F
:10034400603C501DE5825FFFE582D313CB5BCBF4A9
:100354002B5582FB50280ABA002409B900200880D2
:100364001DE5825BFBE582D313CF5FCFF4C3132F6C
:100374005582FF50090EBE00050DBD00010CC3EBF4
:100384009FF5F0EA9E42F0E99D42F0E89C45F0605A
:0903940007CC4820E701B3EC227C
:10039D0075F020800E75F010800575F0087D007EDB
:1003AD00007F003392D530D50312057FEC3340101A
:1003BD00EF33FFEE33FEED33FDEC33FCD5F0ED22E4
:0E03CD00E5F0247EA2D513CC92E7CDCEFF2220
:1003DB00EDD2E7CD33EC3392D524814006E4FFFE1A
:1003EB00FDFC22FCE4CFCECDCC24E0501174FF8079
:1003FB00EDC3CC13CCCD13CDCE13CECF13CF047016
:07040B00F030D5DE02057F91
:10041200E9D2E7C933E833F892D5EDD2E7CD33EC30
:0704220033FC5002B2D522A9
:10042900EC30E7100FBF000C0EBE00080DBD000434
:100439000BEB6014A2D5EB13FCED92E7FD2274FFE0
:10044900FCFDFEFF22E480F8A2D574FF13FC7D8039
:03045900E480EF4D
:100E3C000210D5E493A3F8E493A34003F68001F2E7
:100E4C0008DFF48029E493A3F85407240CC8C333B7
:100E5C00C4540F4420C8834004F456800146F6DF86
:100E6C00E4800B0102040810204080900F87E47E80
:100E7C00019360BCA3FF543F30E509541FFEE4937B
:100E8C00A360010ECF54C025E060A840B8E493A342
:100E9C00FAE493A3F8E493A3C8C582C8CAC583CA6D
:100EAC00F0A3C8C582C8CAC583CADFE9DEE780BE25
:010FD100001F
:10045C00BC000BBE0029EF8DF084FFADF022E4CC84
:10046C00F875F008EF2FFFEE33FEEC33FCEE9DEC4D
:10047C00984005FCEE9DFE0FD5F0E9E4CEFD22ED93
:10048C00F8F5F0EE8420D21CFEADF075F008EF2FDD
:10049C00FFED33FD4007985006D5F0F222C398FDCE
:0504AC000FD5F0EA226B
:1004B10075F008758200EF2FFFEE33FECD33CDCC02
:1004C10033CCC58233C5829BED9AEC99E582984085
:1004D1000CF582EE9BFEED9AFDEC99FC0FD5F0D662
:1004E100E4CEFBE4CDFAE4CCF9A88222B800C1B98C
:1004F1000059BA002DEC8BF084CFCECDFCE5F0CBCA
:10050100F97818EF2FFFEE33FEED33FDEC33FCEB02
:1005110033FB10D703994004EB99FB0FD8E5E4F9BD
:10052100FA227818EF2FFFEE33FEED33FDEC33FCAA
:10053100C933C910D7059BE99A4007EC9BFCE99A9E
:10054100F90FD8E0E4C9FAE4CCFB2275F010EF2FE3
:10055100FFEE33FEED33FDCC33CCC833C810D707E3
:100561009BEC9AE899400AED9BFDEC9AFCE899F81E
:0E0571000FD5F0DAE4CDFBE4CCFAE4C8F922B1
:0E057F00C3E49FFFE49EFEE49DFDE49CFC228D
:10058D00E8600FECC313FCED13FDEE13FEEF13FF4C
:03059D00D8F12270
:1005A000E8600FEFC333FFEE33FEED33FDEC33FCB9
:0305B000D8F1225D
:0C05B300ECF0A3EDF0A3EEF0A3EFF022BB
:1005BF00A8828583F0D083D0821205D61205D61279
:1005CF0005D61205D6E473E493A3C583C5F0C5839E
:1005DF00C8C582C8F0A3C583C5F0C583C8C582C886
:0105EF0022E9
:00000001FF
