:03000000020E509D
:0C0E5000787FE4F6D8FD758120020E9733
:10105600C10041005E00480002F1020304050607D4
:101066000842002C000141002B00410045004100D0
:101076003864410032004100330044000E00000095
:0D10860000440017000000004200000100BF
:100F4C00E4F5A753D9BF12005C1210F9120DA912C7
:100F5C0010C8120FD790004612056A0000000090CE
:100F6C00004A12056A0000000043E64043E702D243
:100F7C00AF43A0C09000627412F07B0C7D0A7F0E10
:080F8C00120CAD12059B80EC74
:0A005C00AFA775A70F75A1878FA746
:010066002277
:1010F900AFA775A70F43D40153F1FE43A44043A5FD
:101109000853A5BF43D60F53F3F043A6C075AEFFEE
:0B11190043AF0375E10275C7408FA7CC
:0111240022A8
:1010C800AFA7E4F5A743BC0175BE0475BD6C75BE3A
:1010D8000775BDA075BE0875BD0153BCFE75E80354
:1010E80075D13375BB0A75BC3843E604D2EF8FA7B8
:0110F80022D5
:100FD700AFA7E4F5A7F58EF588758921758A907511
:100FE7008CE8D28CD2A9F5C8438E1075CBF675CA9A
:100FF7009F74FFF5CDF5CCD2ADD2CAD2BDE4F59141
:10100700F5937592C874FFF595F5944391048FA7EE
:0110170022B6
:100DA900AFA775A70C43C00143C04E759B14759A34
:100DB9000275C30075C2F0E4F5C5F5C475C75F7562
:100DC900C6FCF5CBF5CA75D31475D28875CD807577
:100DD900CC40F5BF75BE10E5BF20E7FB75CD80752A
:100DE900CC0C75BF0075BE03E5BF20E7FB75D300CA
:100DF90075D28875CDA075CC4475BF0075BE11E557
:100E0900BF20E7FB75CDA075CCC075BF0075BE309E
:100E1900E5BF20E7FBE4FEEE64106020EE6411609C
:100E29001BEE64036016EE64306011E4F5CDF5CC79
:100E3900EEFD75BF008DBEE5BF20E7FB0EEEB420C9
:060E4900D653C0BE8FA7C6
:010E4F002280
:10101800AEA775A70C900002E0F5D4A3E0F5D5A320
:10102800E0F5D6A3E0F5D7A3E0F5DAA3E0F5DBA376
:10103800E0F5DCA3E0F5DD75C30075C287EFFD754B
:0D104800BF008DBEE5BF20E7FBAF068FA700
:011055002278
:10059B0090004AE0FCA3E0FDA3E0FEA3E0FFE41221
:1005AB00039D7B007AF0797F78451202877B007A76
:1005BB0060796A784612017EE4FBFA794078401242
:1005CB000287E4FBFA797A784312028790000E12C5
:1005DB00055EE4FFFE7D7A7C4290000EE0F8A3E01E
:1005EB00F9A3E0FAA3E0FB12017EE4FBFA7973783E
:1005FB00C312008D1203DBEE3395E0FDFC90002E51
:10060B0012055EE47BE87A03F9F890002EE0FCA378
:10061B00E0FDA3E0FEA3E0FF120498AC00AD01AE39
:10062B0002AF03E47B64FAF9F8120498C004C00526
:10063B00C006C007E47BE87A03F9F890002EE0FCD3
:10064B00A3E0FDA3E0FEA3E0FF12049878041205DB
:10065B004BD003D002D001D000EB4FFFEA4EFE90FF
:10066B000012EEF0A3EFF0E47B64FAF9F890002EA1
:10067B00E0FCA3E0FDA3E0FEA3E0FF120498AC00B6
:10068B00AD01AE02AF03E47B0AFAF9F812049878D5
:10069B000412054BC004C005C006C007E47B0AFA70
:1006AB00F9F890002EE0FCA3E0FDA3E0FEA3E0FF31
:1006BB00120498AE02AF03D003D002D001D000EFEA
:1006CB004BFFEE4AFE900014EEF0A3EFF0900046C5
:1006DB00E0FCA3E0FDA3E0FEA3E0FFE412039D7B9F
:1006EB00007AF0797F78451202877B007A60796A0D
:1006FB00784612017EE4FBFA79407840120287E4D7
:10070B00FBFA797A784312028790001712055EE4A0
:10071B00FFFE7D7A7C42900017E0F8A3E0F9A3E09E
:10072B00FAA3E0FB12017EE4FBFA797378C31200A3
:10073B008D1203DBEE3395E0FDFC90003412055E69
:10074B00E47BE87A03F9F8900034E0FCA3E0FDA326
:10075B00E0FEA3E0FF120498AC00AD01AE02AF03C4
:10076B00E47B64FAF9F8120498C004C005C006C013
:10077B0007E47BE87A03F9F8900034E0FCA3E0FD92
:10078B00A3E0FEA3E0FF120498780412054BD003FC
:10079B00D002D001D000EB4FFFEA4EFE90001BEED3
:1007AB00F0A3EFF0E47B64FAF9F8900034E0FCA3DB
:1007BB00E0FDA3E0FEA3E0FF120498AC00AD01AE98
:1007CB0002AF03E47B0AFAF9F812049878041205D5
:1007DB004BC004C005C006C007E47B0AFAF9F890C9
:1007EB000034E0FCA3E0FDA3E0FEA3E0FF120498BD
:1007FB00AE02AF03D003D002D001D000EF4BFFEE1F
:0B080B004AFE90001DEEF0A3EFF0226B
:1008160090002EE0FCA3E0FDA3E0FEA3E0FFE412BF
:10082600039DE4FBFA79C87842120287C004C0052A
:10083600C006C007900052E0FCA3E0FDA3E0FEA3C3
:10084600E0FFE412039DD003D002D001D0001200D5
:100856008990002712055E90000AE0FCA3E0FDA344
:10086600E0FEA3E0FF900027E0F8A3E0F9A3E0FA9A
:10087600A3E0FB12008D90000A12055E90004EE088
:10088600F8A3E0F9A3E0FAA3E0FB900027E0FCA3BD
:10089600E0FDA3E0FEA3E0FF1200899000681205C8
:1008A6005E900027E0FCA3E0FDA3E0FEA3E0FF903E
:1008B600004E12055E90000AE0FCA3E0FDA3E0FEF8
:1008C600A3E0FF90003DE0F8A3E0F9A3E0FAA3E07F
:1008D600FB12017EC004C005C006C007900027E0D9
:1008E600FCA3E0FDA3E0FEA3E0FF900041E0F8A337
:1008F600E0F9A3E0FAA3E0FB12017ED003D002D018
:1009060001D00012008DC004C005C006C0079000CB
:1009160068E0FCA3E0FDA3E0FEA3E0FF900039E061
:10092600F8A3E0F9A3E0FAA3E0FB12017ED003D01E
:1009360002D001D00012008D90006C12055EE4FF1B
:10094600FEFDFC90006CE0F8A3E0F9A3E0FAA3E05A
:10095600FB1203246002501BE4FFFEFDFC90006CBA
:10096600E0F8A3E0F9A3E0FAA3E0FB120324600396
:10097600020A0C90006CE0FCA3E0FDA3E0FEA3E0FD
:10098600FFE4FBFA79C8784212028790006C1205E0
:100996005E90006CE0FCA3E0FDA3E0FEA3E0FF1286
:1009A60003DB900032EFF0E4A3F0FFFEFDFC9000C5
:1009B6006CE0F8A3E0F9A3E0FAA3E0FB12032460DD
:1009C6002240207F9A7E997D997C3E90006CE0F8CB
:1009D600A3E0F9A3E0FAA3E0FB1203245005E49098
:1009E6000032F0E4FFFE7D807C3F90006CE0F8A3CF
:1009F600E0F9A3E0FAA3E0FB1203246010400E9096
:0D0A060000327401F022E4900032F0A3F001
:010A130022C0
:03008300020A145A
:100A1400C0E0C0F0C083C082C0D075D000C000C0A8
:0D0A240001C002C003C004C005C006C00729
:100A3100900067E594F0AF9CAB07900066E5AAF0E3
:100A4100900065E5ABF0900064E5ACF0900063E5E3
:100A5100ADF0900066E05401FA900063E0FCA3E081
:100A6100FDA3E0FEA3E0FF780112053890006312B8
:100A7100055EAF02EA6007900063E04480F075C351
:100A81000075C27FEBFF75BF008FBEE5BF20E7FB9E
:100A9100900067E020E403020B65900056E5D4F076
:100AA100A3E5D5F0A3E5D6F0A3E5D7F0A3E5DAF009
:100AB100A3E5DBF0A3E5DCF0A3E5DDF0900016741F
:100AC10001F0AF03EB64036003020B65900058E093
:100AD10064016003020B65900057E064016003024A
:100AE1000B65900056E024FE601924FE601A24FC78
:100AF100601B24F8601C24F0601D241F701C120070
:100B01006E801712000E801212001C800D12002E32
:100B1100800812003C800312004E900056E09000C5
:100B210002F0900057E0900003F0A37410F09000E1
:100B31005EE0900005F0900012A3E0900006F090B6
:100B41000014A3E0900007F090001BA3E0900008C0
:100B5100F090001DA3E0900009F07F301210187F83
:100B610011121018900067E05407600664076002D4
:100B7100D200900067E030E702D200900067E030D9
:040B8100E602D200B6
:100B8500D007D006D005D004D003D002D001D000C4
:0B0B9500D0D0D082D083D0F0D0E0326E
:03000B00020F944D
:100F9400C0E0C0F0C083C082C0D075D000C000C023
:100FA40001C002C003C004C005C006C007C28D75DD
:100FB4008A90758CE8120816D007D006D005D004A4
:100FC400D003D002D001D000D0D0D082D083D0F0D2
:030FD400D0E03238
:03002B000210942C
:10109400C0E0C083C082C0D075D000C007C2CF906A
:1010A400002BE0FFB40103A3800A742D2FF582E422
:1010B4003400F583E04410F5BBD007D0D0D082D003
:0410C40083D0E032C3
:03006B00020EDCA6
:100EDC00C0E0C0F0C083C082C0D075D000C006C0D6
:100EEC000753917F900032E075F064A4F0A3E07595
:100EFC00F064A4F0900045E004F0900038E0FF901E
:100F0C000045E0D39F4002E4F0900032E0FF9000F7
:100F1C0045E0FEC39F500553A0BF800343A0409003
:100F2C000033E0FFEEC39F500553A07F800343A026
:100F3C0080D007D006D0D0D082D083D0F0D0E03291
:03004B00020BA005
:100BA000C0E0C0F0C083C082C0D075D000C000C01B
:0D0BB00001C002C003C004C005C006C0079C
:100BBD00C2ED90002BE025E025E0241FF582E43402
:100BCD0000F583C083C082E0F8A3E0F9A3E0FAA3A7
:100BDD00E0FBAFBDAEBEE4FCFDEB2FFFEA3EFEED4C
:100BED0039FDEC38FCD082D08312055E90002BE0ED
:100BFD0064016003020C8C900001E024FFF0900072
:100C0D0000E034FFF0E07002A3E0706C900000048F
:100C1D00F0A3E4F0900070F0900000E0FEA3E0FB84
:100C2D00AA06E4F9F8900070E025E025E0241FF510
:100C3D0082E43400F583E0FCA3E0FDA3E0FEA3E035
:100C4D00FF120498900070E0FB25E025E02446F5A6
:100C5D0082E43400F58312055EEB25E025E0241FC8
:100C6D00F582E43400F58312056A0000000090005F
:100C7D0070E004F0E0B402A090002BE4F080069048
:050C8D00002BE004F063
:100C9200D007D006D005D004D003D002D001D000B6
:0B0CA200D0D0D082D083D0F0D0E03260
:0A006E005390BF53A0BF43A08022AF
:0E000E0090005212056A000000325390BF228B
:0E001C005390BF90005212056A000000AA2205
:0E002E005390BF90005212056A000000AA22F3
:0E003C005390BF90005212056A00000000228F
:0E004E005390BF90005212056A00000000227D
:10114F003F065B4F666D7D077F6FBF86DBCFE6ED9A
:10115F00FD87FFEFC0F9A4B0999282F88090888341
:08116F00C6A1868E89888CFF61
:0A11250090116393F5B07F017E0086
:10112F00D3EF9400EE6480948040147D647C00EDD6
:0F113F001D70011CED4C70F7EF1F70E41E80E176
:01114E00227E
:100CAD00A907AA0553B5FDE4F5B07F01FE12112F7A
:100CBD0043B50212112B53B5FD53B5FEE9121125A3
:100CCD0043B50112112B53B5FE53B5FD75B001128D
:100CDD00112B43B50212112B53B5FD7F0A7E001265
:100CED00112F53B5FDE4F5B07F01FE12112F43B561
:100CFD000212112B53B5FD53B5FEEA12112543B562
:100D0D000112112B53B5FE53B5FD75B00212112B07
:100D1D0043B50212112B53B5FD53B5FD7F0A7E006D
:100D2D0012112FE4F5B07F01FE12112F43B50212FF
:100D3D00112B53B5FD53B5FEEB12112543B5011221
:100D4D00112B53B5FE53B5FD75B00412112B43B5E0
:100D5D000212112B53B5FD7F0A7E0012112FE4F5FF
:100D6D00B07F01FE12112F43B50212112B53B5FDA9
:100D7D0053B5FE900062E012112543B50112112BFF
:100D8D0053B5FE53B5FD75B00812112B43B50212C4
:0C0D9D00112B53B5FD7F0A7E0002112FC0
:10008600020447E86480F8E933E83360110460F05D
:10009600ED33EC337009E8FCE9FDEAFEEBFF2204E0
:1000A60060DED3EB9FEA9EE99DE8C2E78CF0C2F7DB
:1000B60095F0400CE8CCF8E9CDF9EACEFAEBCFFBA7
:1000C60012041285D0F05804700320D5B3E80470EA
:1000D600075002B2D502045192D5EC0460F7E4CC85
:1000E600C0E0C398F8603B94186008400DD0E0FB70
:1000F600020429E4FBFAC9FC8028E830E406E4C9D6
:10010600FBE4CAFCE830E305E4C9CACBFCE85407C3
:100116006010F8C3E913F9EA13FAEB13FBEC13FCCE
:10012600D8F130F52FC3E49CFCEF9BFFEE9AFEED71
:1001360099FDD0E0FBEF4E4D4C701222DB0302041A
:100146004EEC2CFCEF33FFEE33FEED33FDED30E7E6
:10015600EB020429EF2BFFEE3AFEED39FDD0E0FB72
:1001660050130BBB0003020451ED13FDEE13FEEF1B
:0801760013FFEC13FC02042945
:10017E00EC4D6011E8497017ED33EC3304600DE47B
:10018E00FCFFFEFD22E933E8330470F80204471247
:10019E00041258046009E4CC248150062850090248
:1001AE00045128400302044EC0E0EB4A7044B9806B
:1001BE0006D0E0FB02043DEF4E701CBD8008EBFF45
:1001CE00EAFEE9FD80EBE98DF0A4FEE5F0020267A0
:1001DE00E9CDF9EAFEEBFFEF89F0A4FCE5F0CE895C
:1001EE00F0A42EFFE435F0CD89F0A42DFEE435F019
:1001FE008067EF4E7005BD80D780C3EF8BF0A4AC47
:10020E00F0EE8BF0A42CFCE435F0F8EF8AF0A42C81
:10021E00E5F038FCE433CB8DF0A42CFCE5F03BF894
:10022E00EE8AF0A42CFCE5F038F8E433CF89F0A484
:10023E002CFCE5F038CF3400CE89F0A42FFFE5F08A
:10024E003EFEE433C98DF0A42EFEE5F039CD8AF0E2
:10025E00A42FFFE5F03EFEE43DFD33D0E0FB50075A
:10026E000BBB000F020451EC2CFCEF33FFEE33FE00
:06027E00ED33FD0204292E
:10028400020451EC5D046005E8590470030204475C
:10029400120412580460F6EC4860F2EC7004FDFE9F
:1002A400FF22C860DB2481C85009C398600250064D
:1002B40002044E9850CAF582E9294B4A7005AB8274
:1002C40002043D75F0007C1A7880C3EF9BEE9AED32
:1002D40099400DC3EF9BFFEE9AFEED99FDE842F0C5
:1002E400DC23ACF0D0E0FFD0E0FED0E0FDAB822018
:1002F400E7101BEB60BAEC2CFCEF33FFEE33FEEDA2
:1003040033FD020429E803F830E705C0F075F00076
:10031400EF2FFFEE33FEED33FD40B830E7C280AA85
:1003240074F8CC6480CCC86480C8F58204604FC380
:10033400EB9FF5F0EA9E42F0E99D42F0E89C45F01F
:10034400603C501DE5825FFFE582D313CB5BCBF4A9
:100354002B5582FB50280ABA002409B900200880D2
:100364001DE5825BFBE582D313CF5FCFF4C3132F6C
:100374005582FF50090EBE00050DBD00010CC3EBF4
:100384009FF5F0EA9E42F0E99D42F0E89C45F0605A
:0903940007CC4820E701B3EC227C
:10039D0075F020800E75F010800575F0087D007EDB
:1003AD00007F003392D530D50312052AEC3340106F
:1003BD00EF33FFEE33FEED33FDEC33FCD5F0ED22E4
:0E03CD00E5F0247EA2D513CC92E7CDCEFF2220
:1003DB00EDD2E7CD33EC3392D524814006E4FFFE1A
:1003EB00FDFC22FCE4CFCECDCC24E0501174FF8079
:1003FB00EDC3CC13CCCD13CDCE13CECF13CF047016
:07040B00F030D5DE02052AE6
:10041200E9D2E7C933E833F892D5EDD2E7CD33EC30
:0704220033FC5002B2D522A9
:10042900EC30E7100FBF000C0EBE00080DBD000434
:100439000BEB6014A2D5EB13FCED92E7FD2274FFE0
:10044900FCFDFEFF22E480F8A2D574FF13FC7D8039
:03045900E480EF4D
:100E5C00020F4CE493A3F8E493A34003F68001F251
:100E6C0008DFF48029E493A3F85407240CC8C33397
:100E7C00C4540F4420C8834004F456800146F6DF66
:100E8C00E4800B0102040810204080901056E47E90
:100E9C00019360BCA3FF543F30E509541FFEE4935B
:100EAC00A360010ECF54C025E060A840B8E493A322
:100EBC00FAE493A3F8E493A3C8C582C8CAC583CA4D
:100ECC00F0A3C8C582C8CAC583CADFE9DEE780BE05
:01109300005C
:10045C0075F008758200EF2FFFEE33FECD33CDCC57
:10046C0033CCC58233C5829BED9AEC99E5829840DA
:10047C000CF582EE9BFEED9AFDEC99FC0FD5F0D6B7
:10048C00E4CEFBE4CDFAE4CCF9A88222B800C1B9E1
:10049C000059BA002DEC8BF084CFCECDFCE5F0CB1F
:1004AC00F97818EF2FFFEE33FEED33FDEC33FCEB58
:1004BC0033FB10D703994004EB99FB0FD8E5E4F913
:1004CC00FA227818EF2FFFEE33FEED33FDEC33FC00
:1004DC00C933C910D7059BE99A4007EC9BFCE99AF4
:1004EC00F90FD8E0E4C9FAE4CCFB2275F010EF2F39
:1004FC00FFEE33FEED33FDCC33CCC833C810D70739
:10050C009BEC9AE899400AED9BFDEC9AFCE899F873
:0E051C000FD5F0DAE4CDFBE4CCFAE4C8F92206
:0E052A00C3E49FFFE49EFEE49DFDE49CFC22E2
:10053800E8600FECC313FCED13FDEE13FEEF13FFA1
:03054800D8F122C5
:10054B00E8600FEFC333FFEE33FEED33FDEC33FC0E
:03055B00D8F122B2
:0C055E00ECF0A3EDF0A3EEF0A3EFF02210
:10056A00A8828583F0D083D0821205811205811278
:10057A000581120581E473E493A3C583C5F0C5839D
:10058A00C8C582C8F0A3C583C5F0C583C8C582C8DB
:01059A00223E
:00000001FF
