:03000000020F22CA
:0C0F2200787FE4F6D8FD758120020F698D
:10101E00C10041006200480002F102030405060708
:10102E000842002C000141002B0041004900410004
:10103E003864410032004100330044005600000184
:10104E00F444000E000000004400170000000042AF
:04105E00000001008D
:100DBA00E4F5A753D9BF12004E12118B120E7B1203
:100DCA00115A1210A690004A12057B0000000090EA
:100DDA00004E12057B0000000043E64043E702D2C2
:100DEA00AF43A0C09000667412F07B0C7D0A7F0EA0
:100DFA00120CBE1205AC900041E0FCA3E0FDA3E09A
:100E0A00FEA3E02401FFE43EFEE43DFDE43CFC9049
:100E1A00004112056F90005BE0FFB4012790005A71
:100E2A00E0900002F0A3EFF0A37410F0900062E0EB
:100E3A00900005F0A37401F0A374F4F0A37402F017
:100E4A00A374BCF0E47FE87E03FDFC900041E0F867
:100E5A00A3E0F9A3E0FAA3E0FBD312053840857FAB
:100E6A00011210E890004112057B00000000020DFB
:010E7A00EE89
:0A004E00AFA775A70F75A1878FA754
:010058002285
:10118B00AFA775A70F43D40153F1FE43A44043A56A
:10119B000853A5BF43D60F53F3F043A6C075AEFF5C
:0B11AB0043AF0375E10275C7408FA73A
:0111B6002216
:10115A00AFA7E4F5A743BC0175BE0475BD6C75BEA7
:10116A000775BDA075BE0875BD0153BCFE75E803C1
:10117A0075D13375BB0A75BC3843E604D2EF8FA725
:01118A002242
:1010A600AFA7E4F5A7F58EF588758921758A907541
:1010B6008CE8D28CD2A9F5C8438E1075CBF675CACA
:1010C6009F74FFF5CDF5CCD2ADD2CAD2BDE4F59171
:1010D6007592307593F87594307595F84391048F31
:0110E600A762
:0110E70022E6
:100E7B00AFA775A70C43C00143C04E759B14759A61
:100E8B000275C30075C2F0E4F5C5F5C475C75F758F
:100E9B00C6FCF5CBF5CA75D31475D28875CD8075A4
:100EAB00CC40F5BF75BE10E5BF20E7FB75CD807557
:100EBB00CC0C75BF0075BE03E5BF20E7FB75D300F7
:100ECB0075D28875CDA075CC4475BF0075BE11E584
:100EDB00BF20E7FB75CDA075CC0475BF0075BE01B7
:100EEB00E5BF20E7FBE4FEEE64106020EE641160CA
:100EFB001BEE64036016EE64016011E4F5CDF5CCD6
:100F0B00EEFD75BF008DBEE5BF20E7FB0EEEB420F6
:060F1B00D653C0BE8FA7F3
:010F210022AD
:1010E800AEA775A70C900002E0F5D4A3E0F5D5A350
:1010F800E0F5D6A3E0F5D7A3E0F5DAA3E0F5DBA3A6
:10110800E0F5DCA3E0F5DD75C30075C287EFFD757A
:0D111800BF008DBEE5BF20E7FBAF068FA72F
:0111250022A7
:1005AC0090004EE0FCA3E0FDA3E0FEA3E0FFE4120C
:1005BC00039D7B007AF0797F78451202877B007A65
:1005CC0060796A784612017EE4FBFA794078401231
:1005DC000287E4FBFA797A784312028790000E12B4
:1005EC00056FE4FFFE7D7A7C4290000EE0F8A3E0FC
:1005FC00F9A3E0FAA3E0FB12017EE4FBFA7973782D
:10060C00C312008D1203DBEE3395E0FDFC90002E3F
:10061C0012056FE47BE87A03F9F890002EE0FCA356
:10062C00E0FDA3E0FEA3E0FF120498AC00AD01AE28
:10063C0002AF03E47B64FAF9F8120498C004C00515
:10064C00C006C007E47BE87A03F9F890002EE0FCC2
:10065C00A3E0FDA3E0FEA3E0FF12049878041205CA
:10066C005CD003D002D001D000EB4FFFEA4EFE90DD
:10067C000012EEF0A3EFF0E47B64FAF9F890002E90
:10068C00E0FCA3E0FDA3E0FEA3E0FF120498AC00A5
:10069C00AD01AE02AF03E47B0AFAF9F812049878C4
:1006AC000412055CC004C005C006C007E47B0AFA4E
:1006BC00F9F890002EE0FCA3E0FDA3E0FEA3E0FF20
:1006CC00120498AE02AF03D003D002D001D000EFD9
:1006DC004BFFEE4AFE900014EEF0A3EFF090004AB0
:1006EC00E0FCA3E0FDA3E0FEA3E0FFE412039D7B8E
:1006FC00007AF0797F78451202877B007A60796AFC
:10070C00784612017EE4FBFA79407840120287E4C5
:10071C00FBFA797A784312028790001712056FE47E
:10072C00FFFE7D7A7C42900017E0F8A3E0F9A3E08D
:10073C00FAA3E0FB12017EE4FBFA797378C3120092
:10074C008D1203DBEE3395E0FDFC90003412056F47
:10075C00E47BE87A03F9F8900034E0FCA3E0FDA315
:10076C00E0FEA3E0FF120498AC00AD01AE02AF03B3
:10077C00E47B64FAF9F8120498C004C005C006C002
:10078C0007E47BE87A03F9F8900034E0FCA3E0FD81
:10079C00A3E0FEA3E0FF120498780412055CD003DA
:1007AC00D002D001D000EB4FFFEA4EFE90001BEEC2
:1007BC00F0A3EFF0E47B64FAF9F8900034E0FCA3CA
:1007CC00E0FDA3E0FEA3E0FF120498AC00AD01AE87
:1007DC0002AF03E47B0AFAF9F812049878041205C4
:1007EC005CC004C005C006C007E47B0AFAF9F890A7
:1007FC000034E0FCA3E0FDA3E0FEA3E0FF120498AC
:10080C00AE02AF03D003D002D001D000EF4BFFEE0D
:0B081C004AFE90001DEEF0A3EFF0225A
:1008270090002EE0FCA3E0FDA3E0FEA3E0FFE412AE
:10083700039DE4FBFA79C87842120287C004C00519
:10084700C006C007900056E0FCA3E0FDA3E0FEA3AE
:10085700E0FFE412039DD003D002D001D0001200C4
:100867008990002712056F90000AE0FCA3E0FDA322
:10087700E0FEA3E0FF900027E0F8A3E0F9A3E0FA89
:10088700A3E0FB12008D90000A12056F900052E062
:10089700F8A3E0F9A3E0FAA3E0FB900027E0FCA3AC
:1008A700E0FDA3E0FEA3E0FF12008990006C1205B3
:1008B7006F900027E0FCA3E0FDA3E0FEA3E0FF901C
:1008C700005212056F90000AE0FCA3E0FDA3E0FED2
:1008D700A3E0FF90003DE0F8A3E0F9A3E0FAA3E06E
:1008E700FB12017EC004C005C006C007900027E0C8
:1008F700FCA3E0FDA3E0FEA3E0FF900045E0F8A322
:10090700E0F9A3E0FAA3E0FB12017ED003D002D006
:1009170001D00012008DC004C005C006C0079000BA
:100927006CE0FCA3E0FDA3E0FEA3E0FF900039E04C
:10093700F8A3E0F9A3E0FAA3E0FB12017ED003D00D
:1009470002D001D00012008D90007012056FE4FFF5
:10095700FEFDFC900070E0F8A3E0F9A3E0FAA3E045
:10096700FB1203246002501BE4FFFEFDFC900070A5
:10097700E0F8A3E0F9A3E0FAA3E0FB120324600385
:10098700020A1D900070E0FCA3E0FDA3E0FEA3E0D7
:10099700FFE4FBFA79C878421202879000701205CB
:1009A7006F900070E0FCA3E0FDA3E0FEA3E0FF1260
:1009B70003DB900032EFF0E4A3F0FFFEFDFC9000B4
:1009C70070E0F8A3E0F9A3E0FAA3E0FB12032460C8
:1009D7002240207F9A7E997D997C3E900070E0F8B6
:1009E700A3E0F9A3E0FAA3E0FB1203245005E49087
:1009F7000032F0E4FFFE7D807C3F900070E0F8A3BA
:100A0700E0F9A3E0FAA3E0FB1203246010400E9084
:0D0A170000327401F022E4900032F0A3F0F0
:010A240022AF
:03008300020A2549
:100A2500C0E0C0F0C083C082C0D075D000C000C097
:0D0A350001C002C003C004C005C006C00718
:100A420090006BE594F0AF9CAB0790006AE5AAF0CA
:100A5200900069E5ABF0900068E5ACF0900067E5C6
:100A6200ADF090006AE05401FA900067E0FCA3E068
:100A7200FDA3E0FEA3E0FF78011205499000671292
:100A8200056FAF02EA6007900067E04480F075C32B
:100A92000075C27FEBFF75BF008FBEE5BF20E7FB8D
:100AA20090006BE020E403020B7690005AE5D4F04C
:100AB200A3E5D5F0A3E5D6F0A3E5D7F0A3E5DAF0F8
:100AC200A3E5DBF0A3E5DCF0A3E5DDF0900016740E
:100AD20001F0AF03EB64036003020B7690005CE06D
:100AE20064016003020B7690005BE0640160030224
:100AF2000B7690005AE024FE601924FE601A24FC52
:100B0200601B24F8601C24F0601D241F701C12005E
:100B12000E80171212098012121230800D12125614
:100B2200800812002E800312003C90005AE09000D0
:100B320002F090005BE0900003F0A37410F09000CC
:100B420062E0900005F0900012A3E0900006F090A1
:100B52000014A3E0900007F090001BA3E0900008AF
:100B6200F090001DA3E0900009F07F011210E87FD1
:100B7200111210E890006BE05407600664076002EF
:100B8200D20090006BE030E702D20090006BE030C0
:040B9200E602D200A5
:100B9600D007D006D005D004D003D002D001D000B3
:0B0BA600D0D0D082D083D0F0D0E0325D
:03000B000210637D
:10106300C0E0C0F0C083C082C0D075D000C000C053
:1010730001C002C003C004C005C006C007C28D750D
:101083008A90758CE8120827D007D006D005D004C3
:10109300D003D002D001D000D0D0D082D083D0F002
:0310A300D0E03268
:03002B0002112699
:10112600C0E0C083C082C0D075D000C007C2CF90D7
:10113600002BE0FFB40103A3800A742D2FF582E48F
:101146003400F583E04410F5BBD007D0D0D082D070
:0411560083D0E03230
:03006B00020FAED3
:100FAE00C0E0C0F0C083C082C0D075D000C006C003
:100FBE000753917F900032E075F064A4F0A3E075C2
:100FCE00F064A4F0900049E004F0900038E0FF9047
:100FDE000049E0D39F4002E4F0900032E0FF900021
:100FEE0049E0FEC39F500553A0BF800343A040902D
:100FFE000033E0FFEEC39F500553A07F800343A054
:10100E0080D007D006D0D0D082D083D0F0D0E032BE
:03004B00020BB1F4
:100BB100C0E0C0F0C083C082C0D075D000C000C00A
:0D0BC10001C002C003C004C005C006C0078B
:100BCE00C2ED90002BE025E025E0241FF582E434F1
:100BDE0000F583C083C082E0F8A3E0F9A3E0FAA396
:100BEE00E0FBAFBDAEBEE4FCFDEB2FFFEA3EFEED3B
:100BFE0039FDEC38FCD082D08312056F90002BE0CB
:100C0E0064016003020C9D900001E024FFF090004F
:100C1E0000E034FFF0E07002A3E0706C900000047E
:100C2E00F0A3E4F0900074F0900000E0FEA3E0FB6F
:100C3E00AA06E4F9F8900074E025E025E0241FF5FB
:100C4E0082E43400F583E0FCA3E0FDA3E0FEA3E024
:100C5E00FF120498900074E0FB25E025E0244AF58D
:100C6E0082E43400F58312056FEB25E025E0241FA6
:100C7E00F582E43400F58312057B0000000090003D
:100C8E0074E004F0E0B402A090002BE4F080069033
:050C9E00002BE004F052
:100CA300D007D006D005D004D003D002D001D000A5
:0B0CB300D0D0D082D083D0F0D0E0324F
:10000E005390BF53A0BF43A08090005612057B00B3
:04001E000001F422C7
:10120900900056E0FCA3E0FDA3E0FEA3E0C3943206
:10121900FFEE9400FEED9400FDEC9400FC90005666
:0712290012056F5390BF2274
:101230005390BF900056E0FCA3E0FDA3E0FEA3E0C6
:10124000C394AAFFEE9400FEED9400FDEC9400FC24
:0612500090005602056F3C
:101256005390BF900056E0FCA3E0FDA3E0FEA3E0A0
:10126600C394AAFFEE9400FEED9400FDEC9400FCFE
:0612760090005602056F16
:0E002E005390BF90005612057B000000002288
:0E003C005390BF90005612057B00000000227A
:1011E1003F065B4F666D7D077F6FBF86DBCFE6ED08
:1011F100FD87FFEFC0F9A4B0999282F880908883AF
:08120100C6A1868E89888CFFCE
:0A11B7009011F593F5B07F017E0062
:1011C100D3EF9400EE6480948040147D647C00ED44
:0F11D1001D70011CED4C70F7EF1F70E41E80E1E4
:0111E00022EC
:100CBE00A907AA0553B5FDE4F5B07F01FE1211C1D7
:100CCE0043B5021211BD53B5FD53B5FEE91211B76E
:100CDE0043B5011211BD53B5FE53B5FD75B00112EA
:100CEE0011BD43B5021211BD53B5FD7F0A7E001230
:100CFE0011C153B5FDE4F5B07F01FE1211C143B52C
:100D0E00021211BD53B5FD53B5FEEA1211B743B52C
:100D1E00011211BD53B5FE53B5FD75B0021211BDD2
:100D2E0043B5021211BD53B5FD53B5FD7F0A7E00CA
:100D3E001211C1E4F5B07F01FE1211C143B50212CA
:100D4E0011BD53B5FD53B5FEEB1211B743B50112EC
:100D5E0011BD53B5FE53B5FD75B0041211BD43B5AB
:100D6E00021211BD53B5FD7F0A7E001211C1E4F5CA
:100D7E00B07F01FE1211C143B5021211BD53B5FD74
:100D8E0053B5FE900066E01211B743B5011211BDC6
:100D9E0053B5FE53B5FD75B0081211BD43B5021221
:0C0DAE0011BD53B5FD7F0A7E000211C18B
:10008600020447E86480F8E933E83360110460F05D
:10009600ED33EC337009E8FCE9FDEAFEEBFF2204E0
:1000A60060DED3EB9FEA9EE99DE8C2E78CF0C2F7DB
:1000B60095F0400CE8CCF8E9CDF9EACEFAEBCFFBA7
:1000C60012041285D0F05804700320D5B3E80470EA
:1000D600075002B2D502045192D5EC0460F7E4CC85
:1000E600C0E0C398F8603B94186008400DD0E0FB70
:1000F600020429E4FBFAC9FC8028E830E406E4C9D6
:10010600FBE4CAFCE830E305E4C9CACBFCE85407C3
:100116006010F8C3E913F9EA13FAEB13FBEC13FCCE
:10012600D8F130F52FC3E49CFCEF9BFFEE9AFEED71
:1001360099FDD0E0FBEF4E4D4C701222DB0302041A
:100146004EEC2CFCEF33FFEE33FEED33FDED30E7E6
:10015600EB020429EF2BFFEE3AFEED39FDD0E0FB72
:1001660050130BBB0003020451ED13FDEE13FEEF1B
:0801760013FFEC13FC02042945
:10017E00EC4D6011E8497017ED33EC3304600DE47B
:10018E00FCFFFEFD22E933E8330470F80204471247
:10019E00041258046009E4CC248150062850090248
:1001AE00045128400302044EC0E0EB4A7044B9806B
:1001BE0006D0E0FB02043DEF4E701CBD8008EBFF45
:1001CE00EAFEE9FD80EBE98DF0A4FEE5F0020267A0
:1001DE00E9CDF9EAFEEBFFEF89F0A4FCE5F0CE895C
:1001EE00F0A42EFFE435F0CD89F0A42DFEE435F019
:1001FE008067EF4E7005BD80D780C3EF8BF0A4AC47
:10020E00F0EE8BF0A42CFCE435F0F8EF8AF0A42C81
:10021E00E5F038FCE433CB8DF0A42CFCE5F03BF894
:10022E00EE8AF0A42CFCE5F038F8E433CF89F0A484
:10023E002CFCE5F038CF3400CE89F0A42FFFE5F08A
:10024E003EFEE433C98DF0A42EFEE5F039CD8AF0E2
:10025E00A42FFFE5F03EFEE43DFD33D0E0FB50075A
:10026E000BBB000F020451EC2CFCEF33FFEE33FE00
:06027E00ED33FD0204292E
:10028400020451EC5D046005E8590470030204475C
:10029400120412580460F6EC4860F2EC7004FDFE9F
:1002A400FF22C860DB2481C85009C398600250064D
:1002B40002044E9850CAF582E9294B4A7005AB8274
:1002C40002043D75F0007C1A7880C3EF9BEE9AED32
:1002D40099400DC3EF9BFFEE9AFEED99FDE842F0C5
:1002E400DC23ACF0D0E0FFD0E0FED0E0FDAB822018
:1002F400E7101BEB60BAEC2CFCEF33FFEE33FEEDA2
:1003040033FD020429E803F830E705C0F075F00076
:10031400EF2FFFEE33FEED33FD40B830E7C280AA85
:1003240074F8CC6480CCC86480C8F58204604FC380
:10033400EB9FF5F0EA9E42F0E99D42F0E89C45F01F
:10034400603C501DE5825FFFE582D313CB5BCBF4A9
:100354002B5582FB50280ABA002409B900200880D2
:100364001DE5825BFBE582D313CF5FCFF4C3132F6C
:100374005582FF50090EBE00050DBD00010CC3EBF4
:100384009FF5F0EA9E42F0E99D42F0E89C45F0605A
:0903940007CC4820E701B3EC227C
:10039D0075F020800E75F010800575F0087D007EDB
:1003AD00007F003392D530D50312052AEC3340106F
:1003BD00EF33FFEE33FEED33FDEC33FCD5F0ED22E4
:0E03CD00E5F0247EA2D513CC92E7CDCEFF2220
:1003DB00EDD2E7CD33EC3392D524814006E4FFFE1A
:1003EB00FDFC22FCE4CFCECDCC24E0501174FF8079
:1003FB00EDC3CC13CCCD13CDCE13CECF13CF047016
:07040B00F030D5DE02052AE6
:10041200E9D2E7C933E833F892D5EDD2E7CD33EC30
:0704220033FC5002B2D522A9
:10042900EC30E7100FBF000C0EBE00080DBD000434
:100439000BEB6014A2D5EB13FCED92E7FD2274FFE0
:10044900FCFDFEFF22E480F8A2D574FF13FC7D8039
:03045900E480EF4D
:100F2E00020DBAE493A3F8E493A34003F68001F212
:100F3E0008DFF48029E493A3F85407240CC8C333C4
:100F4E00C4540F4420C8834004F456800146F6DF93
:100F5E00E4800B010204081020408090101EE47EF5
:100F6E00019360BCA3FF543F30E509541FFEE49388
:100F7E00A360010ECF54C025E060A840B8E493A34F
:100F8E00FAE493A3F8E493A3C8C582C8CAC583CA7A
:100F9E00F0A3C8C582C8CAC583CADFE9DEE780BE32
:01106200008D
:10045C0075F008758200EF2FFFEE33FECD33CDCC57
:10046C0033CCC58233C5829BED9AEC99E5829840DA
:10047C000CF582EE9BFEED9AFDEC99FC0FD5F0D6B7
:10048C00E4CEFBE4CDFAE4CCF9A88222B800C1B9E1
:10049C000059BA002DEC8BF084CFCECDFCE5F0CB1F
:1004AC00F97818EF2FFFEE33FEED33FDEC33FCEB58
:1004BC0033FB10D703994004EB99FB0FD8E5E4F913
:1004CC00FA227818EF2FFFEE33FEED33FDEC33FC00
:1004DC00C933C910D7059BE99A4007EC9BFCE99AF4
:1004EC00F90FD8E0E4C9FAE4CCFB2275F010EF2F39
:1004FC00FFEE33FEED33FDCC33CCC833C810D70739
:10050C009BEC9AE899400AED9BFDEC9AFCE899F873
:0E051C000FD5F0DAE4CDFBE4CCFAE4C8F92206
:0E052A00C3E49FFFE49EFEE49DFDE49CFC22E2
:10053800EB9FF5F0EA9E42F0E99D42F0E89C45F019
:010548002290
:10054900E8600FECC313FCED13FDEE13FEEF13FF90
:03055900D8F122B4
:10055C00E8600FEFC333FFEE33FEED33FDEC33FCFD
:03056C00D8F122A1
:0C056F00ECF0A3EDF0A3EEF0A3EFF022FF
:10057B00A8828583F0D083D0821205921205921245
:10058B000592120592E473E493A3C583C5F0C5836A
:10059B00C8C582C8F0A3C583C5F0C583C8C582C8CA
:0105AB00222D
:00000001FF
