:03000000020FEEFE
:0C0FEE00787FE4F6D8FD758120021035F4
:1012B7003F065B4F666D7D077F6FBF86DBCFE6ED31
:1012C700FD87FFEFC0F9A4B0999282F880908883D8
:0812D700C6A1868E89888CFFF8
:0A128D009012CB93F5B07F017E00B4
:10129700D3EF9400EE6480948040147D647C00ED6D
:0F12A7001D70011CED4C70F7EF1F70E41E80E10D
:0112B6002215
:100D7900A907AA0553B5FDE4F5B07F01FE12129744
:100D890043B50212129353B5FD53B5FEE912128D04
:100D990043B50112129353B5FE53B5FD75B0011257
:100DA900129343B50212129353B5FD7F0A7E0012C6
:100DB900129753B5FDE4F5B07F01FE12129743B5C2
:100DC9000212129353B5FD53B5FEEA12128D43B5C3
:100DD9000112129353B5FE53B5FD75B00212129369
:100DE90043B50212129353B5FD53B5FD7F0A7E0038
:100DF900121297E4F5B07F01FE12129743B5021261
:100E0900129353B5FD53B5FEEB12128D43B5011282
:100E1900129353B5FE53B5FD75B00412129343B541
:100E29000212129353B5FD7F0A7E00121297E4F560
:100E3900B07F01FE12129743B50212129353B5FD0A
:100E490053B5FE900071E012128D43B50112129351
:100E590053B5FE53B5FD75B00812129343B502128E
:0C0E6900129353B5FD7F0A7E0002129721
:1010EA004A0039C0F9A4B0999282F88090C10041AF
:1010FA00006D00480002F1020304050607084100DA
:10110A00430042002C000141002B004100540041E1
:10111A00003864410032004100330044000E0000F0
:0E112A00000044001700000000420000010019
:100F3200E4F5A753D9BF121307121261120E7512EC
:100F4200123012117C43E702D2AF43A0C09000716D
:100F52007412F07B0C7D067F01120D79900043E044
:100F6200600F7F141211BE7F011211BEE490004384
:100F7200F0900065E0900002F0900066E0900003BF
:100F8200F0A37412F090006DE0900005F0A37401DC
:100F9200F0A3744AF0A37401F0A3742CF090004CF7
:100FA200E0FCA3E0FDA3E0FEA3E02401FFE43EFE9B
:100FB200E43DFDE43CFC90004C12056FE47FE87ECA
:100FC20003FDFC90004CE0F8A3E0F9A3E0FAA3E0F3
:100FD200FBD31205385003020F4F7F011211BE904E
:0C0FE200004C12057B00000000020F4FC5
:0A130700AFA775A70F75A1878FA788
:0113110022B9
:10126100AFA775A70F43D40153F1FE43A44043A593
:101271000853A5BF43D60F53F3F043A6C075AEFF85
:0B12810043AF0375E10275C7408FA763
:01128C00223F
:10123000AFA7E4F5A743BC0175BE0475BD6C75BED0
:101240000775BDA075BE0875BD0153BCFE75E803EA
:1012500075D13375BB0A75BC3843E604D2EF8FA74E
:01126000226B
:10117C00AFA7E4F5A7F58EF588758921758A90756A
:10118C008CE8D28CD2A9F5C8438E1075CBF675CAF3
:10119C009F74FFF5CDF5CCD2ADD2CAD2BDE4F5919A
:1011AC007592307593F87594307595F84391048F5A
:0111BC00A78B
:0111BD00220F
:100E7500AFA775A70C43C00143C04E759B14759A67
:100E85000275C30075C2F0E4F5C5F5C475C75F7595
:100E9500C6FCF5CBF5CA75D31475D28875CD8075AA
:100EA500CC48F5BF75BE12E5BF20E7FB75CD807553
:100EB500CC0C75BF0075BE03E5BF20E7FB75D300FD
:100EC50075D28875CDA075CC5075BF0075BE14E57B
:100ED500BF20E7FB75CDA075CC4C75BF0075BE1363
:100EE500E5BF20E7FB75CDA075CC0475BF0075BEC9
:100EF50001E5BF20E7FBE4FEEE64136025EE641216
:100F05006020EE6403601BEE64016016EE641460FD
:100F150011E4F5CDF5CCEEFD75BF008DBEE5BF2026
:0C0F2500E7FB0EEEB420D153C0BE8FA736
:010F3100229D
:1011BE00AEA775A70C900002E0F5D4A3E0F5D5A379
:1011CE00E0F5D6A3E0F5D7A3E0F5DAA3E0F5DBA3CF
:1011DE00E0F5DCA3E0F5DD75C30075C287EFFD75A4
:0D11EE00BF008DBEE5BF20E7FBAF068FA759
:0111FB0022D1
:1005AC00900059E0FCA3E0FDA3E0FEA3E0FFE41201
:1005BC00039D7B007AF0797F78451202877B007A65
:1005CC0060796A784612017EE4FBFA794078401231
:1005DC000287E4FBFA797A784312028790000E12B4
:1005EC00056FE4FFFE7D7A7C4290000EE0F8A3E0FC
:1005FC00F9A3E0FAA3E0FB12017EE4FBFA7973782D
:10060C00C312008D1203DBEE3395E0FDFC90002E3F
:10061C0012056FE47BE87A03F9F890002EE0FCA356
:10062C00E0FDA3E0FEA3E0FF120498AC00AD01AE28
:10063C0002AF03E47B64FAF9F8120498C004C00515
:10064C00C006C007E47BE87A03F9F890002EE0FCC2
:10065C00A3E0FDA3E0FEA3E0FF12049878041205CA
:10066C005CD003D002D001D000EB4FFFEA4EFE90DD
:10067C000012EEF0A3EFF0E47B64FAF9F890002E90
:10068C00E0FCA3E0FDA3E0FEA3E0FF120498AC00A5
:10069C00AD01AE02AF03E47B0AFAF9F812049878C4
:1006AC000412055CC004C005C006C007E47B0AFA4E
:1006BC00F9F890002EE0FCA3E0FDA3E0FEA3E0FF20
:1006CC00120498AE02AF03D003D002D001D000EFD9
:1006DC004BFFEE4AFE900014EEF0A3EFF0900055A5
:1006EC00E0FCA3E0FDA3E0FEA3E0FFE412039D7B8E
:1006FC00007AF0797F78451202877B007A60796AFC
:10070C00784612017EE4FBFA79407840120287E4C5
:10071C00FBFA797A784312028790001712056FE47E
:10072C00FFFE7D7A7C42900017E0F8A3E0F9A3E08D
:10073C00FAA3E0FB12017EE4FBFA797378C3120092
:10074C008D1203DBEE3395E0FDFC90003412056F47
:10075C00E47BE87A03F9F8900034E0FCA3E0FDA315
:10076C00E0FEA3E0FF120498AC00AD01AE02AF03B3
:10077C00E47B64FAF9F8120498C004C005C006C002
:10078C0007E47BE87A03F9F8900034E0FCA3E0FD81
:10079C00A3E0FEA3E0FF120498780412055CD003DA
:1007AC00D002D001D000EB4FFFEA4EFE90001BEEC2
:1007BC00F0A3EFF0E47B64FAF9F8900034E0FCA3CA
:1007CC00E0FDA3E0FEA3E0FF120498AC00AD01AE87
:1007DC0002AF03E47B0AFAF9F812049878041205C4
:1007EC005CC004C005C006C007E47B0AFAF9F890A7
:1007FC000034E0FCA3E0FDA3E0FEA3E0FF120498AC
:10080C00AE02AF03D003D002D001D000EF4BFFEE0D
:0B081C004AFE90001DEEF0A3EFF0225A
:100A6E0090002EE0FCA3E0FDA3E0FEA3E0FFE41265
:100A7E00039DE4FBFA79C87842120287C004C005D0
:100A8E00C006C007900061E0FCA3E0FDA3E0FEA35A
:100A9E00E0FFE412039DD003D002D001D00012007B
:100AAE008990002712056F90000AE0FCA3E0FDA3D9
:100ABE00E0FEA3E0FF900027E0F8A3E0F9A3E0FA40
:100ACE00A3E0FB12008D90000A12056F90005DE00E
:100ADE00F8A3E0F9A3E0FAA3E0FB900027E0FCA363
:100AEE00E0FDA3E0FEA3E0FF12008990007712055F
:100AFE006F900027E0FCA3E0FDA3E0FEA3E0FF90D3
:100B0E00005D12056F90000AE0FCA3E0FDA3E0FE7D
:100B1E00A3E0FF900048E0F8A3E0F9A3E0FAA3E019
:100B2E00FB12017EC004C005C006C007900027E07E
:100B3E00FCA3E0FDA3E0FEA3E0FF900050E0F8A3CD
:100B4E00E0F9A3E0FAA3E0FB12017ED003D002D0BD
:100B5E0001D00012008DC004C005C006C007900071
:100B6E0077E0FCA3E0FDA3E0FEA3E0FF900044E0ED
:100B7E00F8A3E0F9A3E0FAA3E0FB12017ED003D0C4
:100B8E0002D001D00012008D90007B12056FE4FFA1
:100B9E00FEFDFC90007BE0F8A3E0F9A3E0FAA3E0F1
:100BAE00FB1203246002501BE4FFFEFDFC90007B51
:100BBE00E0F8A3E0F9A3E0FAA3E0FB12032460033C
:100BCE00020C6490007BE0FCA3E0FDA3E0FEA3E03A
:100BDE00FFE4FBFA79C8784212028790007B120577
:100BEE006F90007BE0FCA3E0FDA3E0FEA3E0FF120C
:100BFE0003DB900032EFF0E4A3F0FFFEFDFC90006B
:100C0E007BE0F8A3E0F9A3E0FAA3E0FB1203246073
:100C1E002240207F9A7E997D997C3E90007BE0F861
:100C2E00A3E0F9A3E0FAA3E0FB1203245005E4903D
:100C3E000032F0E4FFFE7D807C3F90007BE0F8A365
:100C4E00E0F9A3E0FAA3E0FB1203246010400E903B
:0D0C5E0000327401F022E4900032F0A3F0A7
:010C6B002266
:0300830002082749
:10082700C0E0C0F0C083C082C0D075D000C000C097
:0D08370001C002C003C004C005C006C00718
:10084400900076E594F0AF9CAB07900075E5AAF0B4
:10085400900074E5ABF0900073E5ACF0900072E5A5
:10086400ADF0900075E05401FA900072E0FCA3E052
:10087400FDA3E0FEA3E0FF78011205499000721287
:10088400056FAF02EA6007900072E04480F075C320
:100894000075C27FEBFF75BF008FBEE5BF20E7FB8D
:1008A400900076E020E403020A33900065E5D4F07A
:1008B400A3E5D5F0A3E5D6F0A3E5D7F0A3E5DAF0F8
:1008C400A3E5DBF0A3E5DCF0A3E5DDF0900016740E
:1008D40001F0EBB4120D900067E0B41106900043F0
:1008E4007401F0AF03EB64036003020A3390006702
:1008F400E064016003020A33900066E06401707BE7
:10090400900065E024FE601924FE601A24FC601B3C
:1009140024F8601C24F0601D241F701C12000E803B
:100924001712002E801212004E800D12006E8008E5
:100934001212DF80031212F3900065E0900002F0BF
:10094400900066E0900003F0A37412F090006DE054
:10095400900005F0900012A3E0900006F0900014BF
:10096400A3E0900007F090001BA3E0900008F09033
:10097400001DA3E0900009F0020A33900066E064D1
:10098400027023900065E024FC70031200039000C1
:1009940065E0900002F0900066E0900003F0A3741C
:1009A40012F0A3E4805F900066E064116003020A21
:1009B40033900065E024FE601924FE601A24FC6074
:1009C4001B24F8601C24F0601D241F701C12000EF0
:1009D400801712002E801212004E800D12006E80BD
:1009E400081212DF80031212F390006D7411F0905C
:1009F4000065E0900002F0900066E0900003F0A330
:100A04007412F0A314F0900012A3E0900006F0908A
:100A14000014A3E0900007F090001BA3E0900008EE
:100A2400F090001DA3E0900009F07F011211BE9028
:100A34000076E05407600664076002D200900076F6
:0F0A4400E030E702D200900076E030E602D20008
:100A5300D007D006D005D004D003D002D001D000F7
:0B0A6300D0D0D082D083D0F0D0E032A1
:03000B00021139A6
:10113900C0E0C0F0C083C082C0D075D000C000C07C
:1011490001C002C003C004C005C006C007C28D7536
:101159008A90758CE8120A6ED007D006D005D004A3
:10116900D003D002D001D000D0D0D082D083D0F02B
:03117900D0E03291
:03002B000211FCC3
:1011FC00C0E0C083C082C0D075D000C007C2CF9001
:10120C00002BE0FFB40103A3800A742D2FF582E4B8
:10121C003400F583E04410F5BBD007D0D0D082D099
:04122C0083D0E03259
:03006B0002107A06
:10107A00C0E0C0F0C083C082C0D075D000C006C036
:10108A000753917F900032E075F064A4F0A3E075F5
:10109A00F064A4F0900054E004F0900038E0FF906F
:1010AA000054E0D39F4002E4F0900032E0FF900049
:1010BA0054E0FEC39F500553A0BF800343A0409055
:1010CA000033E0FFEEC39F500553A07F800343A087
:1010DA0080D007D006D0D0D082D083D0F0D0E032F2
:03004B00020C6C38
:100C6C00C0E0C0F0C083C082C0D075D000C000C04E
:0D0C7C0001C002C003C004C005C006C007CF
:100C8900C2ED90002BE025E025E0241FF582E43435
:100C990000F583C083C082E0F8A3E0F9A3E0FAA3DA
:100CA900E0FBAFBDAEBEE4FCFDEB2FFFEA3EFEED7F
:100CB90039FDEC38FCD082D08312056F90002BE00F
:100CC90064016003020D58900001E024FFF09000D8
:100CD90000E034FFF0E07002A3E0706C90000004C3
:100CE900F0A3E4F090007FF0900000E0FEA3E0FBA9
:100CF900AA06E4F9F890007FE025E025E0241FF535
:100D090082E43400F583E0FCA3E0FDA3E0FEA3E068
:100D1900FF12049890007FE0FB25E025E02455F5BB
:100D290082E43400F58312056FEB25E025E0241FEA
:100D3900F582E43400F58312057B00000000900081
:100D49007FE004F0E0B402A090002BE4F08006906C
:050D5900002BE004F096
:100D5E00D007D006D005D004D003D002D001D000E9
:0B0D6E00D0D0D082D083D0F0D0E03293
:10000E005390BF900066E0B4110A43904053A0BFD6
:0B001E0043A0802243A04053A07F229B
:10002E005390BF900066E0B4110343904053A0BFBD
:04003E0043A0802239
:10004E005390BF900066E0B4110343904053A0BF9D
:04005E0043A0802219
:10006E005390BF900066E0B4110343904053A0BF7D
:04007E0043A08022F9
:1012DF005390BF900066E0B4110343904053A0BFFA
:0412EF0043A0802276
:1012F3005390BF900066E0B4110343904053A0BFE6
:0413030043A0802261
:0400030053A07F2265
:10008600020447E86480F8E933E83360110460F05D
:10009600ED33EC337009E8FCE9FDEAFEEBFF2204E0
:1000A60060DED3EB9FEA9EE99DE8C2E78CF0C2F7DB
:1000B60095F0400CE8CCF8E9CDF9EACEFAEBCFFBA7
:1000C60012041285D0F05804700320D5B3E80470EA
:1000D600075002B2D502045192D5EC0460F7E4CC85
:1000E600C0E0C398F8603B94186008400DD0E0FB70
:1000F600020429E4FBFAC9FC8028E830E406E4C9D6
:10010600FBE4CAFCE830E305E4C9CACBFCE85407C3
:100116006010F8C3E913F9EA13FAEB13FBEC13FCCE
:10012600D8F130F52FC3E49CFCEF9BFFEE9AFEED71
:1001360099FDD0E0FBEF4E4D4C701222DB0302041A
:100146004EEC2CFCEF33FFEE33FEED33FDED30E7E6
:10015600EB020429EF2BFFEE3AFEED39FDD0E0FB72
:1001660050130BBB0003020451ED13FDEE13FEEF1B
:0801760013FFEC13FC02042945
:10017E00EC4D6011E8497017ED33EC3304600DE47B
:10018E00FCFFFEFD22E933E8330470F80204471247
:10019E00041258046009E4CC248150062850090248
:1001AE00045128400302044EC0E0EB4A7044B9806B
:1001BE0006D0E0FB02043DEF4E701CBD8008EBFF45
:1001CE00EAFEE9FD80EBE98DF0A4FEE5F0020267A0
:1001DE00E9CDF9EAFEEBFFEF89F0A4FCE5F0CE895C
:1001EE00F0A42EFFE435F0CD89F0A42DFEE435F019
:1001FE008067EF4E7005BD80D780C3EF8BF0A4AC47
:10020E00F0EE8BF0A42CFCE435F0F8EF8AF0A42C81
:10021E00E5F038FCE433CB8DF0A42CFCE5F03BF894
:10022E00EE8AF0A42CFCE5F038F8E433CF89F0A484
:10023E002CFCE5F038CF3400CE89F0A42FFFE5F08A
:10024E003EFEE433C98DF0A42EFEE5F039CD8AF0E2
:10025E00A42FFFE5F03EFEE43DFD33D0E0FB50075A
:10026E000BBB000F020451EC2CFCEF33FFEE33FE00
:06027E00ED33FD0204292E
:10028400020451EC5D046005E8590470030204475C
:10029400120412580460F6EC4860F2EC7004FDFE9F
:1002A400FF22C860DB2481C85009C398600250064D
:1002B40002044E9850CAF582E9294B4A7005AB8274
:1002C40002043D75F0007C1A7880C3EF9BEE9AED32
:1002D40099400DC3EF9BFFEE9AFEED99FDE842F0C5
:1002E400DC23ACF0D0E0FFD0E0FED0E0FDAB822018
:1002F400E7101BEB60BAEC2CFCEF33FFEE33FEEDA2
:1003040033FD020429E803F830E705C0F075F00076
:10031400EF2FFFEE33FEED33FD40B830E7C280AA85
:1003240074F8CC6480CCC86480C8F58204604FC380
:10033400EB9FF5F0EA9E42F0E99D42F0E89C45F01F
:10034400603C501DE5825FFFE582D313CB5BCBF4A9
:100354002B5582FB50280ABA002409B900200880D2
:100364001DE5825BFBE582D313CF5FCFF4C3132F6C
:100374005582FF50090EBE00050DBD00010CC3EBF4
:100384009FF5F0EA9E42F0E99D42F0E89C45F0605A
:0903940007CC4820E701B3EC227C
:10039D0075F020800E75F010800575F0087D007EDB
:1003AD00007F003392D530D50312052AEC3340106F
:1003BD00EF33FFEE33FEED33FDEC33FCD5F0ED22E4
:0E03CD00E5F0247EA2D513CC92E7CDCEFF2220
:1003DB00EDD2E7CD33EC3392D524814006E4FFFE1A
:1003EB00FDFC22FCE4CFCECDCC24E0501174FF8079
:1003FB00EDC3CC13CCCD13CDCE13CECF13CF047016
:07040B00F030D5DE02052AE6
:10041200E9D2E7C933E833F892D5EDD2E7CD33EC30
:0704220033FC5002B2D522A9
:10042900EC30E7100FBF000C0EBE00080DBD000434
:100439000BEB6014A2D5EB13FCED92E7FD2274FFE0
:10044900FCFDFEFF22E480F8A2D574FF13FC7D8039
:03045900E480EF4D
:100FFA00020F32E493A3F8E493A34003F68001F2CC
:10100A0008DFF48029E493A3F85407240CC8C333F7
:10101A00C4540F4420C8834004F456800146F6DFC6
:10102A00E4800B01020408102040809010EAE47E5C
:10103A00019360BCA3FF543F30E509541FFEE493BB
:10104A00A360010ECF54C025E060A840B8E493A382
:10105A00FAE493A3F8E493A3C8C582C8CAC583CAAD
:10106A00F0A3C8C582C8CAC583CADFE9DEE780BE65
:0111380000B6
:10045C0075F008758200EF2FFFEE33FECD33CDCC57
:10046C0033CCC58233C5829BED9AEC99E5829840DA
:10047C000CF582EE9BFEED9AFDEC99FC0FD5F0D6B7
:10048C00E4CEFBE4CDFAE4CCF9A88222B800C1B9E1
:10049C000059BA002DEC8BF084CFCECDFCE5F0CB1F
:1004AC00F97818EF2FFFEE33FEED33FDEC33FCEB58
:1004BC0033FB10D703994004EB99FB0FD8E5E4F913
:1004CC00FA227818EF2FFFEE33FEED33FDEC33FC00
:1004DC00C933C910D7059BE99A4007EC9BFCE99AF4
:1004EC00F90FD8E0E4C9FAE4CCFB2275F010EF2F39
:1004FC00FFEE33FEED33FDCC33CCC833C810D70739
:10050C009BEC9AE899400AED9BFDEC9AFCE899F873
:0E051C000FD5F0DAE4CDFBE4CCFAE4C8F92206
:0E052A00C3E49FFFE49EFEE49DFDE49CFC22E2
:10053800EB9FF5F0EA9E42F0E99D42F0E89C45F019
:010548002290
:10054900E8600FECC313FCED13FDEE13FEEF13FF90
:03055900D8F122B4
:10055C00E8600FEFC333FFEE33FEED33FDEC33FCFD
:03056C00D8F122A1
:0C056F00ECF0A3EDF0A3EEF0A3EFF022FF
:10057B00A8828583F0D083D0821205921205921245
:10058B000592120592E473E493A3C583C5F0C5836A
:10059B00C8C582C8F0A3C583C5F0C583C8C582C8CA
:0105AB00222D
:00000001FF
