:03000000020F0DDF
:0C0F0D00787FE4F6D8FD758120020F54B7
:101219003F065B4F666D7D077F6FBF86DBCFE6EDCF
:10122900FD87FFEFC0F9A4B0999282F88090888376
:08123900C6A1868E89888CFF96
:0A11EF0090122D93F5B07F017E00F1
:1011F900D3EF9400EE6480948040147D647C00ED0C
:0F1209001D70011CED4C70F7EF1F70E41E80E1AB
:0112180022B3
:100D5400A907AA0553B5FDE4F5B07F01FE1211F908
:100D640043B5021211F553B5FD53B5FEE91211EF67
:100D740043B5011211F553B5FE53B5FD75B001121B
:100D840011F543B5021211F553B5FD7F0A7E001229
:100D940011F953B5FDE4F5B07F01FE1211F943B525
:100DA400021211F553B5FD53B5FEEA1211EF43B526
:100DB400011211F553B5FE53B5FD75B0021211F5CC
:100DC40043B5021211F553B5FD53B5FD7F0A7E00FC
:100DD4001211F9E4F5B07F01FE1211F943B50212C4
:100DE40011F553B5FD53B5FEEB1211EF43B50112E6
:100DF40011F553B5FE53B5FD75B0041211F543B5A5
:100E0400021211F553B5FD7F0A7E001211F9E4F5C3
:100E1400B07F01FE1211F943B5021211F553B5FD6D
:100E240053B5FE90006DE01211EF43B5011211F5B8
:100E340053B5FE53B5FD75B0081211F543B5021252
:0C0E440011F553B5FD7F0A7E000211F984
:101009004A0039C0F9A4B0999282F88090C1004190
:10101900006900480002F1020304050607084100BF
:10102900430042002C000141002B004100500041C7
:10103900003864410032004100330044000E0000D2
:0E1049000000440017000000004200000100FB
:10105800E4F5A753D9BF12000E1211C3120E501295
:1010680011921210DE43E702D2AF43A0C090006D88
:101078007412F07B0C7D067F01120D54900043E042
:1010880060EB7F141211207F01121120E4900043BD
:03109800F080DA0B
:0A000E00AFA775A70F75A1878FA794
:0100180022C5
:1011C300AFA775A70F43D40153F1FE43A44043A532
:1011D3000853A5BF43D60F53F3F043A6C075AEFF24
:0B11E30043AF0375E10275C7408FA702
:0111EE0022DE
:10119200AFA7E4F5A743BC0175BE0475BD6C75BE6F
:1011A2000775BDA075BE0875BD0153BCFE75E80389
:1011B20075D13375BB0A75BC3843E604D2EF8FA7ED
:0111C200220A
:1010DE00AFA7E4F5A7F58EF588758921758A907509
:1010EE008CE8D28CD2A9F5C8438E1075CBF675CA92
:1010FE009F74FFF5CDF5CCD2ADD2CAD2BDE4F59139
:10110E007592307593F87594307595F84391048FF8
:01111E00A729
:01111F0022AD
:100E5000AFA775A70C43C00143C04E759B14759A8C
:100E60000275C30075C2F0E4F5C5F5C475C75F75BA
:100E7000C6FCF5CBF5CA75D31475D28875CD8075CF
:100E8000CC48F5BF75BE12E5BF20E7FB75CD807578
:100E9000CC0C75BF0075BE03E5BF20E7FB75D30022
:100EA00075D28875CDA075CC5075BF0075BE14E5A0
:100EB000BF20E7FB75CDA075CC4C75BF0075BE1388
:100EC000E5BF20E7FB75CDA075CC0475BF0075BEEE
:100ED00001E5BF20E7FBE4FEEE64136025EE64123B
:100EE0006020EE6403601BEE64016016EE64146023
:100EF00011E4F5CDF5CCEEFD75BF008DBEE5BF204C
:0C0F0000E7FB0EEEB420D153C0BE8FA75B
:010F0C0022C2
:10112000AEA775A70C900002E0F5D4A3E0F5D5A317
:10113000E0F5D6A3E0F5D7A3E0F5DAA3E0F5DBA36D
:10114000E0F5DCA3E0F5DD75C30075C287EFFD7542
:0D115000BF008DBEE5BF20E7FBAF068FA7F7
:01115D00226F
:10059B00900055E0FCA3E0FDA3E0FEA3E0FFE41216
:1005AB00039D7B007AF0797F78451202877B007A76
:1005BB0060796A784612017EE4FBFA794078401242
:1005CB000287E4FBFA797A784312028790000E12C5
:1005DB00055EE4FFFE7D7A7C4290000EE0F8A3E01E
:1005EB00F9A3E0FAA3E0FB12017EE4FBFA7973783E
:1005FB00C312008D1203DBEE3395E0FDFC90002E51
:10060B0012055EE47BE87A03F9F890002EE0FCA378
:10061B00E0FDA3E0FEA3E0FF120498AC00AD01AE39
:10062B0002AF03E47B64FAF9F8120498C004C00526
:10063B00C006C007E47BE87A03F9F890002EE0FCD3
:10064B00A3E0FDA3E0FEA3E0FF12049878041205DB
:10065B004BD003D002D001D000EB4FFFEA4EFE90FF
:10066B000012EEF0A3EFF0E47B64FAF9F890002EA1
:10067B00E0FCA3E0FDA3E0FEA3E0FF120498AC00B6
:10068B00AD01AE02AF03E47B0AFAF9F812049878D5
:10069B000412054BC004C005C006C007E47B0AFA70
:1006AB00F9F890002EE0FCA3E0FDA3E0FEA3E0FF31
:1006BB00120498AE02AF03D003D002D001D000EFEA
:1006CB004BFFEE4AFE900014EEF0A3EFF0900051BA
:1006DB00E0FCA3E0FDA3E0FEA3E0FFE412039D7B9F
:1006EB00007AF0797F78451202877B007A60796A0D
:1006FB00784612017EE4FBFA79407840120287E4D7
:10070B00FBFA797A784312028790001712055EE4A0
:10071B00FFFE7D7A7C42900017E0F8A3E0F9A3E09E
:10072B00FAA3E0FB12017EE4FBFA797378C31200A3
:10073B008D1203DBEE3395E0FDFC90003412055E69
:10074B00E47BE87A03F9F8900034E0FCA3E0FDA326
:10075B00E0FEA3E0FF120498AC00AD01AE02AF03C4
:10076B00E47B64FAF9F8120498C004C005C006C013
:10077B0007E47BE87A03F9F8900034E0FCA3E0FD92
:10078B00A3E0FEA3E0FF120498780412054BD003FC
:10079B00D002D001D000EB4FFFEA4EFE90001BEED3
:1007AB00F0A3EFF0E47B64FAF9F8900034E0FCA3DB
:1007BB00E0FDA3E0FEA3E0FF120498AC00AD01AE98
:1007CB0002AF03E47B0AFAF9F812049878041205D5
:1007DB004BC004C005C006C007E47B0AFAF9F890C9
:1007EB000034E0FCA3E0FDA3E0FEA3E0FF120498BD
:1007FB00AE02AF03D003D002D001D000EF4BFFEE1F
:0B080B004AFE90001DEEF0A3EFF0226B
:100A490090002EE0FCA3E0FDA3E0FEA3E0FFE4128A
:100A5900039DE4FBFA79C87842120287C004C005F5
:100A6900C006C00790005DE0FCA3E0FDA3E0FEA383
:100A7900E0FFE412039DD003D002D001D0001200A0
:100A89008990002712055E90000AE0FCA3E0FDA30F
:100A9900E0FEA3E0FF900027E0F8A3E0F9A3E0FA65
:100AA900A3E0FB12008D90000A12055E900059E048
:100AB900F8A3E0F9A3E0FAA3E0FB900027E0FCA388
:100AC900E0FDA3E0FEA3E0FF120089900073120588
:100AD9005E900027E0FCA3E0FDA3E0FEA3E0FF9009
:100AE900005912055E90000AE0FCA3E0FDA3E0FEB8
:100AF900A3E0FF900048E0F8A3E0F9A3E0FAA3E03F
:100B0900FB12017EC004C005C006C007900027E0A3
:100B1900FCA3E0FDA3E0FEA3E0FF90004CE0F8A3F6
:100B2900E0F9A3E0FAA3E0FB12017ED003D002D0E2
:100B390001D00012008DC004C005C006C007900096
:100B490073E0FCA3E0FDA3E0FEA3E0FF900044E016
:100B5900F8A3E0F9A3E0FAA3E0FB12017ED003D0E9
:100B690002D001D00012008D90007712055EE4FFDB
:100B7900FEFDFC900077E0F8A3E0F9A3E0FAA3E01A
:100B8900FB1203246002501BE4FFFEFDFC9000777A
:100B9900E0F8A3E0F9A3E0FAA3E0FB120324600361
:100BA900020C3F900077E0FCA3E0FDA3E0FEA3E088
:100BB900FFE4FBFA79C878421202879000771205A0
:100BC9005E900077E0FCA3E0FDA3E0FEA3E0FF1246
:100BD90003DB900032EFF0E4A3F0FFFEFDFC900090
:100BE90077E0F8A3E0F9A3E0FAA3E0FB120324609D
:100BF9002240207F9A7E997D997C3E900077E0F88B
:100C0900A3E0F9A3E0FAA3E0FB1203245005E49062
:100C19000032F0E4FFFE7D807C3F900077E0F8A38E
:100C2900E0F9A3E0FAA3E0FB1203246010400E9060
:0D0C390000327401F022E4900032F0A3F0CC
:010C4600228B
:030083000208165A
:10081600C0E0C0F0C083C082C0D075D000C000C0A8
:0D08260001C002C003C004C005C006C00729
:10083300900072E594F0AF9CAB07900071E5AAF0CD
:10084300900070E5ABF090006FE5ACF090006EE5C2
:10085300ADF0900071E05401FA90006EE0FCA3E06B
:10086300FDA3E0FEA3E0FF780112053890006E12AD
:10087300055EAF02EA600790006EE04480F075C346
:100883000075C27FEBFF75BF008FBEE5BF20E7FB9E
:10089300900072E020E403020A0E900061E5D4F0B8
:1008A300A3E5D5F0A3E5D6F0A3E5D7F0A3E5DAF009
:1008B300A3E5DBF0A3E5DCF0A3E5DDF0900016741F
:1008C30001F0EBB41210900063E0B41109A3E070DF
:1008D3000590004304F0AF03EB64036003020A0EC8
:1008E300900063E064016003020A0E900062E0641A
:1008F30001707B900061E024FE601924FE601A24DD
:10090300FC601B24F8601C24F0601D241F701C1263
:1009130000038017120019801212002E800D12009E
:1009230038800812004E8003120058900061E09056
:100933000002F0900062E0900003F0A37412F090C4
:100943000069E0900005F0900012A3E0900006F02B
:10095300900014A3E0900007F090001BA3E0900028
:1009630008F090001DA3E0900009F0020A0E900029
:1009730062E06402700D900061E024FC7048120094
:10098300238043900062E064116003020A0E90002A
:1009930061E024FE601924FE601A24FC601B24F825
:1009A300601C24F0601D241F701C120003801712AA
:1009B3000019801212002E800D12003880081200D8
:1009C3004E8003120058900061E0900002F0900006
:1009D30062E0900003F0A37412F0900069E09000CD
:1009E30005F0900012A3E0900006F0900014A3E03D
:1009F300900007F090001BA3E0900008F090001D0A
:100A0300A3E0900009F07F01121120900072E054DE
:100A130007600664076002D200900072E030E702CC
:0B0A2300D200900072E030E602D2002A
:100A2E00D007D006D005D004D003D002D001D0001C
:0B0A3E00D0D0D082D083D0F0D0E032C6
:03000B0002109B45
:10109B00C0E0C0F0C083C082C0D075D000C000C01B
:1010AB0001C002C003C004C005C006C007C28D75D5
:1010BB008A90758CE8120A49D007D006D005D00467
:1010CB00D003D002D001D000D0D0D082D083D0F0CA
:0310DB00D0E03230
:03002B0002115E61
:10115E00C0E0C083C082C0D075D000C007C2CF909F
:10116E00002BE0FFB40103A3800A742D2FF582E457
:10117E003400F583E04410F5BBD007D0D0D082D038
:04118E0083D0E032F8
:03006B00020F99E8
:100F9900C0E0C0F0C083C082C0D075D000C006C018
:100FA9000753917F900032E075F064A4F0A3E075D7
:100FB900F064A4F0900050E004F0900038E0FF9055
:100FC9000050E0D39F4002E4F0900032E0FF90002F
:100FD90050E0FEC39F500553A0BF800343A040903B
:100FE9000033E0FFEEC39F500553A07F800343A069
:100FF90080D007D006D0D0D082D083D0F0D0E032D4
:03004B00020C475D
:100C4700C0E0C0F0C083C082C0D075D000C000C073
:0D0C570001C002C003C004C005C006C007F4
:100C6400C2ED90002BE025E025E0241FF582E4345A
:100C740000F583C083C082E0F8A3E0F9A3E0FAA3FF
:100C8400E0FBAFBDAEBEE4FCFDEB2FFFEA3EFEEDA4
:100C940039FDEC38FCD082D08312055E90002BE045
:100CA40064016003020D33900001E024FFF0900022
:100CB40000E034FFF0E07002A3E0706C90000004E8
:100CC400F0A3E4F090007BF0900000E0FEA3E0FBD2
:100CD400AA06E4F9F890007BE025E025E0241FF55E
:100CE40082E43400F583E0FCA3E0FDA3E0FEA3E08E
:100CF400FF12049890007BE0FB25E025E02451F5E9
:100D040082E43400F58312055EEB25E025E0241F20
:100D1400F582E43400F58312056A000000009000B7
:100D24007BE004F0E0B402A090002BE4F080069095
:050D3400002BE004F0BB
:100D3900D007D006D005D004D003D002D001D0000E
:0B0D4900D0D0D082D083D0F0D0E032B8
:070003005390BF43A040220F
:0A0019005390BF53A0BF43A0802204
:0A002E005390BF53A0BF43A08022EF
:0A0038005390BF53A0BF43A08022E5
:0A004E005390BF53A0BF43A08022CF
:0A0058005390BF53A0BF43A08022C5
:0400230053A07F2245
:10008600020447E86480F8E933E83360110460F05D
:10009600ED33EC337009E8FCE9FDEAFEEBFF2204E0
:1000A60060DED3EB9FEA9EE99DE8C2E78CF0C2F7DB
:1000B60095F0400CE8CCF8E9CDF9EACEFAEBCFFBA7
:1000C60012041285D0F05804700320D5B3E80470EA
:1000D600075002B2D502045192D5EC0460F7E4CC85
:1000E600C0E0C398F8603B94186008400DD0E0FB70
:1000F600020429E4FBFAC9FC8028E830E406E4C9D6
:10010600FBE4CAFCE830E305E4C9CACBFCE85407C3
:100116006010F8C3E913F9EA13FAEB13FBEC13FCCE
:10012600D8F130F52FC3E49CFCEF9BFFEE9AFEED71
:1001360099FDD0E0FBEF4E4D4C701222DB0302041A
:100146004EEC2CFCEF33FFEE33FEED33FDED30E7E6
:10015600EB020429EF2BFFEE3AFEED39FDD0E0FB72
:1001660050130BBB0003020451ED13FDEE13FEEF1B
:0801760013FFEC13FC02042945
:10017E00EC4D6011E8497017ED33EC3304600DE47B
:10018E00FCFFFEFD22E933E8330470F80204471247
:10019E00041258046009E4CC248150062850090248
:1001AE00045128400302044EC0E0EB4A7044B9806B
:1001BE0006D0E0FB02043DEF4E701CBD8008EBFF45
:1001CE00EAFEE9FD80EBE98DF0A4FEE5F0020267A0
:1001DE00E9CDF9EAFEEBFFEF89F0A4FCE5F0CE895C
:1001EE00F0A42EFFE435F0CD89F0A42DFEE435F019
:1001FE008067EF4E7005BD80D780C3EF8BF0A4AC47
:10020E00F0EE8BF0A42CFCE435F0F8EF8AF0A42C81
:10021E00E5F038FCE433CB8DF0A42CFCE5F03BF894
:10022E00EE8AF0A42CFCE5F038F8E433CF89F0A484
:10023E002CFCE5F038CF3400CE89F0A42FFFE5F08A
:10024E003EFEE433C98DF0A42EFEE5F039CD8AF0E2
:10025E00A42FFFE5F03EFEE43DFD33D0E0FB50075A
:10026E000BBB000F020451EC2CFCEF33FFEE33FE00
:06027E00ED33FD0204292E
:10028400020451EC5D046005E8590470030204475C
:10029400120412580460F6EC4860F2EC7004FDFE9F
:1002A400FF22C860DB2481C85009C398600250064D
:1002B40002044E9850CAF582E9294B4A7005AB8274
:1002C40002043D75F0007C1A7880C3EF9BEE9AED32
:1002D40099400DC3EF9BFFEE9AFEED99FDE842F0C5
:1002E400DC23ACF0D0E0FFD0E0FED0E0FDAB822018
:1002F400E7101BEB60BAEC2CFCEF33FFEE33FEEDA2
:1003040033FD020429E803F830E705C0F075F00076
:10031400EF2FFFEE33FEED33FD40B830E7C280AA85
:1003240074F8CC6480CCC86480C8F58204604FC380
:10033400EB9FF5F0EA9E42F0E99D42F0E89C45F01F
:10034400603C501DE5825FFFE582D313CB5BCBF4A9
:100354002B5582FB50280ABA002409B900200880D2
:100364001DE5825BFBE582D313CF5FCFF4C3132F6C
:100374005582FF50090EBE00050DBD00010CC3EBF4
:100384009FF5F0EA9E42F0E99D42F0E89C45F0605A
:0903940007CC4820E701B3EC227C
:10039D0075F020800E75F010800575F0087D007EDB
:1003AD00007F003392D530D50312052AEC3340106F
:1003BD00EF33FFEE33FEED33FDEC33FCD5F0ED22E4
:0E03CD00E5F0247EA2D513CC92E7CDCEFF2220
:1003DB00EDD2E7CD33EC3392D524814006E4FFFE1A
:1003EB00FDFC22FCE4CFCECDCC24E0501174FF8079
:1003FB00EDC3CC13CCCD13CDCE13CECF13CF047016
:07040B00F030D5DE02052AE6
:10041200E9D2E7C933E833F892D5EDD2E7CD33EC30
:0704220033FC5002B2D522A9
:10042900EC30E7100FBF000C0EBE00080DBD000434
:100439000BEB6014A2D5EB13FCED92E7FD2274FFE0
:10044900FCFDFEFF22E480F8A2D574FF13FC7D8039
:03045900E480EF4D
:100F1900021058E493A3F8E493A34003F68001F286
:100F290008DFF48029E493A3F85407240CC8C333D9
:100F3900C4540F4420C8834004F456800146F6DFA8
:100F4900E4800B0102040810204080901009E47E1F
:100F5900019360BCA3FF543F30E509541FFEE4939D
:100F6900A360010ECF54C025E060A840B8E493A364
:100F7900FAE493A3F8E493A3C8C582C8CAC583CA8F
:100F8900F0A3C8C582C8CAC583CADFE9DEE780BE47
:011057000098
:10045C0075F008758200EF2FFFEE33FECD33CDCC57
:10046C0033CCC58233C5829BED9AEC99E5829840DA
:10047C000CF582EE9BFEED9AFDEC99FC0FD5F0D6B7
:10048C00E4CEFBE4CDFAE4CCF9A88222B800C1B9E1
:10049C000059BA002DEC8BF084CFCECDFCE5F0CB1F
:1004AC00F97818EF2FFFEE33FEED33FDEC33FCEB58
:1004BC0033FB10D703994004EB99FB0FD8E5E4F913
:1004CC00FA227818EF2FFFEE33FEED33FDEC33FC00
:1004DC00C933C910D7059BE99A4007EC9BFCE99AF4
:1004EC00F90FD8E0E4C9FAE4CCFB2275F010EF2F39
:1004FC00FFEE33FEED33FDCC33CCC833C810D70739
:10050C009BEC9AE899400AED9BFDEC9AFCE899F873
:0E051C000FD5F0DAE4CDFBE4CCFAE4C8F92206
:0E052A00C3E49FFFE49EFEE49DFDE49CFC22E2
:10053800E8600FECC313FCED13FDEE13FEEF13FFA1
:03054800D8F122C5
:10054B00E8600FEFC333FFEE33FEED33FDEC33FC0E
:03055B00D8F122B2
:0C055E00ECF0A3EDF0A3EEF0A3EFF02210
:10056A00A8828583F0D083D0821205811205811278
:10057A000581120581E473E493A3C583C5F0C5839D
:10058A00C8C582C8F0A3C583C5F0C583C8C582C8DB
:01059A00223E
:00000001FF
