:030000000202E712
:0C02E700787FE4F6D8FD75812002032E1C
:100003003F065B4F666D7D077F6FBF86DBCFE6EDF7
:10001300FD87FFEFC0F9A4B0999282F8809088839E
:08002300C6A1868E89888CFFBE
:0A04590090001793F5B07F017E00BC
:10046300D3EF9400EE6480948040147D647C00EDAF
:0F0473001D70011CED4C70F7EF1F70E41E80E14F
:010482002257
:1001EB00A907AA0553B5FDE4F5B07F01FE12046320
:1001FB0043B50212045F53B5FD53B5FEE912045922
:10020B0043B50112045F53B5FE53B5FD75B0011232
:10021B00045F43B50212045F53B5FD7F0A7E0012E3
:10022B00046353B5FDE4F5B07F01FE12046343B5DF
:10023B000212045F53B5FD53B5FEEA12045943B5E0
:10024B000112045F53B5FE53B5FD75B00212045F86
:10025B0043B50212045F53B5FD53B5FD7F0A7E0013
:10026B00120463E4F5B07F01FE12046343B502127E
:10027B00045F53B5FD53B5FEEB12045943B50112A0
:10028B00045F53B5FE53B5FD75B00412045F43B55F
:10029B000212045F53B5FD7F0A7E00120463E4F57E
:1002AB00B07F01FE12046343B50212045F53B5FD28
:1002BB0053B5FE90001BE012045943B50112045FC5
:1002CB0053B5FE53B5FD75B00812045F43B502126A
:0C02DB00045F53B5FD7F0A7E000204633F
:10048300C10041001700480000F1020304050607FC
:100493000841000E0044000A000102034100090064
:10042B00E4F5A753D9BF12006C1204A41203731284
:10043B0003EE1204E343E702D2AF43A0C090001BCC
:0E044B007412F07B0CE4FD7F021201EB80EFD7
:0A006C00AFA775A70F75A1878FA736
:010076002267
:1004A400AFA775A70F43A44043A50853A5BF43A610
:0F04B400C075AEFF43AF0375E10275C7408FA758
:0104C3002216
:1003EE00AFA7E4F5A743BC0175BE0475BD6C75BE21
:1003FE000775BDA075BE0875BD0153BCFE75E8102E
:10040E0075D133900009E0240AF582E43400F583B7
:0C041E00E04410F5BB75BC38D2EF8FA78E
:01042A0022AF
:1004E300AFA7E4F5A7538ECF53C8FE75CBC2F5CAA9
:0D04F30085CBCD85CACC75C804D2AD8FA7CE
:0105000022D8
:10037300AFA775A70C43C00143C04E759B14759A74
:100383000275C30075C2F0E4F5C5F5C475C75F75A2
:10039300C6FCF5CBF5CA75D31475D28875CD8075B7
:1003A300CC0CF5BF75BE03E5BF20E7FB75D3007525
:1003B300D28875CDA075CC0475BF0075BE01E5BFAD
:1003C30020E7FBE4FEEE64036016EE64016011E4D3
:1003D300F5CDF5CCEEFD75BF008DBEE5BF20E7FB87
:0A03E3000EEEB420E053C0BE8FA759
:0103ED0022ED
:10002E00AEA775A70C900000E0F5D4A3E0F5D5A31C
:10003E00E0F5D6A3E0F5D7A3E0F5DAA3E0F5DBA370
:10004E00E0F5DCA3E0F5DD75C30075C287EFFD7545
:0D005E00BF008DBEE5BF20E7FBAF068FA7FA
:01006B002272
:03008300020086F2
:10008600C0E0C0F0C083C082C0D075D000C000C040
:0D00960001C002C003C004C005C006C007C1
:1000A300900020E594F0AF9CAB0790001FE5AAF009
:1000B30090001EE5ABF090001DE5ACF090001CE550
:1000C300ADF090001FE05401FA90001CE0FCA3E0A7
:1000D300FDA3E0FEA3E0FF78011204C490001C120C
:1000E30004D7AF02EA600790001CE04480F075C3B8
:1000F3000075C27FEBFF75BF008FBEE5BF20E7FB36
:10010300900020E020E4030201B090000FE5D4F05A
:10011300A3E5D5F0A3E5D6F0A3E5D7F0A3E5DAF0A0
:10012300A3E5DBF0A3E5DCF0A3E5DDF090000874C4
:1001330001F0AF03EB64037074900011E06401708D
:100143006C900010E0FF20E064EF640270409000C8
:100153000FE024FE600D24FE600E2403700D1200D8
:10016300778008120501800312050B90000FE090C1
:100173000000F0900010E0900001F0A37413F090E1
:100183000017E0900003F07F0112002E801F900003
:1001930010E0FFB4111790000FE0900000F0A3EF00
:1001A300F0A37413F0900017E0900003F090002088
:1001B300E05407600664076002D200900020E0303C
:0D01C300E702D200900020E030E602D200FA
:1001D000D007D006D005D004D003D002D001D00083
:0B01E000D0D0D082D083D0F0D0E0322D
:03002B00020515B6
:03051500C2CF3220
:01008100225C
:01008200225B
:0105180022C0
:0105190022BF
:01051A0022BE
:01051B0022BD
:0A0077005390BF43A04053A07F2226
:0A0501005390BF53A0BF43A0802217
:0A050B005390BF43A04043A080229C
:1002F30002042BE493A3F8E493A34003F68001F2F2
:1003030008DFF48029E493A3F85407240CC8C3330B
:10031300C4540F4420C8834004F456800146F6DFDA
:10032300E4800B0102040810204080900483E47EE3
:10033300019360BCA3FF543F30E509541FFEE493CF
:10034300A360010ECF54C025E060A840B8E493A396
:10035300FAE493A3F8E493A3C8C582C8CAC583CAC1
:10036300F0A3C8C582C8CAC583CADFE9DEE780BE79
:0104A3000058
:1004C400E8600FECC313FCED13FDEE13FEEF13FF16
:0304D400D8F1223A
:0C04D700ECF0A3EDF0A3EEF0A3EFF02298
:00000001FF
