:03000000020D6985
:0C0D6900787FE4F6D8FD758120020DB003
:1010E0003F065B4F666D7D077F6FBF86DBCFE6ED0A
:1010F000FD87FFEFC0F9A4B0999282F880908883B1
:08110000C6A1868E89888CFFD0
:0A10B6009010F493F5B07F017E0066
:1010C000D3EF9400EE6480948040147D647C00ED46
:0F10D0001D70011CED4C70F7EF1F70E41E80E1E6
:0110DF0022EE
:100C6D00A907AA0553B5FDE4F5B07F01FE1210C02A
:100C7D0043B5021210BC53B5FD53B5FEE91210B6C3
:100C8D0043B5011210BC53B5FE53B5FD75B001123D
:100C9D0010BC43B5021210BC53B5FD7F0A7E001285
:100CAD0010C053B5FDE4F5B07F01FE1210C043B581
:100CBD00021210BC53B5FD53B5FEEA1210B643B582
:100CCD00011210BC53B5FE53B5FD75B0021210BC28
:100CDD0043B5021210BC53B5FD53B5FD7F0A7E001E
:100CED001210C0E4F5B07F01FE1210C043B5021220
:100CFD0010BC53B5FD53B5FEEB1210B643B5011242
:100D0D0010BC53B5FE53B5FD75B0041210BC43B500
:100D1D00021210BC53B5FD7F0A7E001210C0E4F51F
:100D2D00B07F01FE1210C043B5021210BC53B5FDC9
:100D3D0053B5FE900079E01210B643B5011210BC08
:100D4D0053B5FE53B5FD75B0081210BC43B5021274
:0C0D5D0010BC53B5FD7F0A7E000210C0E0
:100EE000C10041007500480002F102030405060735
:100EF0000841003F0044003200010203410031007C
:100F00004100680041003E6441003C0041003D005A
:100F100044002800000000440037000000004100A9
:100F20002700410030004100360041003B004200F4
:030F3000000100BD
:10105C00E4F5A753D9BF12002E12108A120DF51207
:10106C00102B120F7743E702D2AF43A0C090007948
:0E107C007412F07B0CE4FD7F02120C6D80EF0D
:0A002E00AFA775A70F75A1878FA774
:0100380022A5
:10108A00AFA775A70F43D40153F1FE43A44043A56C
:10109A000853A5BF43D60F53F3F043A6C075AEFF5E
:0B10AA0043AF0375E10275C7408FA73C
:0110B5002218
:10102B00AFA7E4F5A743BC0175BE0475BD6C75BED7
:10103B000775BDA075BE0875BD0153BCFE75E803F1
:10104B0075D13375BB0A75BC3843E604D2EF8FA755
:01105B002272
:100F7700AFA7E4F5A7F58EF588758921758A907571
:100F87008CE8D28CD2A9F5C8438E1075CBF675CAFA
:100F97009F74FFF5CDF5CCD2ADD2CAD2BDE4F591A1
:100FA7007592307593F87594307595F84391048F61
:010FB700A792
:010FB8002216
:100DF500AFA775A70C43C00143C04E759B14759AE8
:100E05000275C30075C2F0E4F5C5F5C475C75F7515
:100E1500C6FCF5CBF5CA75D31475D28875CD80752A
:100E2500CC0CF5BF75BE03E5BF20E7FB75D3007598
:100E3500D28875CDA075CC0475BF0075BE01E5BF20
:100E450020E7FBE4FEEE64036016EE64016011E446
:100E5500F5CDF5CCEEFD75BF008DBEE5BF20E7FBFA
:0A0E65000EEEB420E053C0BE8FA7CC
:010E6F002260
:100FB900AEA775A70C900002E0F5D4A3E0F5D5A380
:100FC900E0F5D6A3E0F5D7A3E0F5DAA3E0F5DBA3D6
:100FD900E0F5DCA3E0F5DD75C30075C287EFFD75AB
:0D0FE900BF008DBEE5BF20E7FBAF068FA760
:010FF60022D8
:10059B0090005CE0FCA3E0FDA3E0FEA3E0FFE4120F
:1005AB00039D7B007AF0797F78451202877B007A76
:1005BB0060796A784612017EE4FBFA794078401242
:1005CB000287E4FBFA797A784312028790002812AB
:1005DB00055EE4FFFE7D7A7C42900028E0F8A3E004
:1005EB00F9A3E0FAA3E0FB12017EE4FBFA7973783E
:1005FB00C312008D1203DBEE3395E0FDFC9000403F
:10060B0012055EE47BE87A03F9F8900040E0FCA366
:10061B00E0FDA3E0FEA3E0FF120498AC00AD01AE39
:10062B0002AF03E47B64FAF9F8120498C004C00526
:10063B00C006C007E47BE87A03F9F8900040E0FCC1
:10064B00A3E0FDA3E0FEA3E0FF12049878041205DB
:10065B004BD003D002D001D000EB4FFF900027EF1F
:10066B00F0E47B64FAF9F8900040E0FCA3E0FDA312
:10067B00E0FEA3E0FF120498AC00AD01AE02AF03A5
:10068B00E47B0AFAF9F8120498780412054BC004BB
:10069B00C005C006C007E47B0AFAF9F8900040E0F9
:1006AB00FCA3E0FDA3E0FEA3E0FF120498AF03D090
:1006BB0003D002D001D000EF4BFF900030EFF09051
:1006CB000058E0FCA3E0FDA3E0FEA3E0FFE412036F
:1006DB009D7B007AF0797F78451202877B007A60E8
:1006EB00796A784612017EE4FBFA7940784012026F
:1006FB0087E4FBFA797A7843120287900037120568
:10070B005EE4FFFE7D7A7C42900037E0F8A3E0F9CF
:10071B00A3E0FAA3E0FB12017EE4FBFA797378C342
:10072B0012008D1203DBEE3395E0FDFC90004812B6
:10073B00055EE47BE87A03F9F8900048E0FCA3E05F
:10074B00FDA3E0FEA3E0FF120498AC00AD01AE02E6
:10075B00AF03E47B64FAF9F8120498C004C005C037
:10076B0006C007E47BE87A03F9F8900048E0FCA3A5
:10077B00E0FDA3E0FEA3E0FF120498780412054B02
:10078B00D003D002D001D000EB4FFF900036EFF03A
:10079B00E47B64FAF9F8900048E0FCA3E0FDA3E0E9
:1007AB00FEA3E0FF120498AC00AD01AE02AF03E470
:1007BB007B0AFAF9F8120498780412054BC004C0AE
:1007CB0005C006C007E47B0AFAF9F8900048E0FC84
:1007DB00A3E0FDA3E0FEA3E0FF120498AF03D00358
:0F07EB00D002D001D000EF4BFF90003BEFF02287
:1007FA00900040E0FCA3E0FDA3E0FEA3E0FFE412CA
:10080A00039DE4FBFA79C87842120287C004C00546
:10081A00C006C00790000EE0FCA3E0FDA3E0FEA323
:10082A00E0FFE412039DD003D002D001D0001200F1
:10083A008990002C12055E90000AE0FCA3E0FDA35B
:10084A00E0FEA3E0FF90002CE0F8A3E0F9A3E0FAB1
:10085A00A3E0FB12008D90000A12055E900069E089
:10086A00F8A3E0F9A3E0FAA3E0FB90002CE0FCA3D4
:10087A00E0FDA3E0FEA3E0FF12008990007F1205CD
:10088A005E90002CE0FCA3E0FDA3E0FEA3E0FF9055
:10089A00006912055E90000AE0FCA3E0FDA3E0FEF9
:1008AA00A3E0FF90004CE0F8A3E0F9A3E0FAA3E08C
:1008BA00FB12017EC004C005C006C00790002CE0F0
:1008CA00FCA3E0FDA3E0FEA3E0FF900054E0F8A340
:1008DA00E0F9A3E0FAA3E0FB12017ED003D002D034
:1008EA0001D00012008DC004C005C006C0079000E8
:1008FA007FE0FCA3E0FDA3E0FEA3E0FF900044E05C
:10090A00F8A3E0F9A3E0FAA3E0FB12017ED003D03A
:10091A0002D001D00012008D90008312055EE4FF20
:10092A00FEFDFC900083E0F8A3E0F9A3E0FAA3E05F
:10093A00FB1203246002501BE4FFFEFDFC900083BF
:10094A00E0F8A3E0F9A3E0FAA3E0FB1203246003B2
:10095A000209F0900083E0FCA3E0FDA3E0FEA3E01F
:10096A00FFE4FBFA79C878421202879000831205E5
:10097A005E900083E0FCA3E0FDA3E0FEA3E0FF128B
:10098A0003DB90003CEFF0E4A3F0FFFEFDFC9000D7
:10099A0083E0F8A3E0F9A3E0FAA3E0FB12032460E2
:1009AA002240207F9A7E997D997C3E900083E0F8D0
:1009BA00A3E0F9A3E0FAA3E0FB1203245005E490B4
:1009CA00003CF0E4FFFE7D807C3F900083E0F8A3CA
:1009DA00E0F9A3E0FAA3E0FB1203246010400E90B2
:0D09EA00003C7401F022E490003CF0A3F00A
:0109F70022DD
:030083000209F877
:1009F800C0E0C0F0C083C082C0D075D000C000C0C5
:0D0A080001C002C003C004C005C006C00745
:100A150090007EE594F0AF9CAB0790007DE5AAF0D1
:100A250090007CE5ABF090007BE5ACF090007AE5BA
:100A3500ADF090007DE05401FA90007AE0FCA3E06F
:100A4500FDA3E0FEA3E0FF780112053890007A12BD
:100A5500055EAF02EA600790007AE04480F075C356
:100A65000075C27FEBFF75BF008FBEE5BF20E7FBBA
:100A750090007EE020E403020B2590006DE5D4F0A4
:100A8500A3E5D5F0A3E5D6F0A3E5D7F0A3E5DAF025
:100A9500A3E5DBF0A3E5DCF0A3E5DDF0900016743B
:100AA50001F0AF03EB6403707790006FE0640170B1
:100AB5006F90006EE0FF64016066EF640270409025
:100AC500006DE024FE600D24FE600E2403700D12FF
:100AD5000039800812000E800312004E90006DE070
:100AE500900002F090006EE0900003F0A37413F004
:100AF500900075E0900005F07F01120FB9802190FC
:100B0500006EE0FFB411199000757411F090006D3E
:100B1500E0900002F0A3EFF0A37413F0A37411F0BA
:100B250090007EE05407600664076002D2009000E2
:100B35007EE030E702D20090007EE030E602D2008F
:100B4500D007D006D005D004D003D002D001D00004
:0B0B5500D0D0D082D083D0F0D0E032AE
:03000B00020F34AD
:100F3400C0E0C0F0C083C082C0D075D000C000C083
:100F440001C002C003C004C005C006C007C28D753D
:100F54008A90758CE81207FAD007D006D005D00421
:100F6400D003D002D001D000D0D0D082D083D0F032
:030F7400D0E03298
:03002B00020FF7CA
:100FF700C0E0C083C082C0D075D000C007C2CF9008
:101007000031E0FFB40303A3800A74332FF582E4B1
:101017003400F583E04410F5BBD007D0D0D082D0A0
:0410270083D0E03260
:03006B00020E7012
:100E7000C0E0C0F0C083C082C0D075D000C006C042
:100E80000753917F90003CE075F064A4F0A3E075F7
:100E9000F064A4F0900068E004F090003EE0FF9061
:100EA0000068E0D39F4002E4F090003CE0FF900037
:100EB00068E0FEC39F500553A0BF800343A040904D
:100EC000003DE0FFEEC39F500553A07F800343A089
:100ED00080D007D006D0D0D082D083D0F0D0E032FE
:03004B00020B6045
:100B6000C0E0C0F0C083C082C0D075D000C000C05B
:0D0B700001C002C003C004C005C006C007DC
:100B7D00C2ED900031E025E025E02417F582E43444
:100B8D0000F583C083C082E0F8A3E0F9A3E0FAA3E7
:100B9D00E0FBAFBDAEBEE4FCFDEB2FFFEA3EFEED8C
:100BAD0039FDEC38FCD082D08312055E900031E027
:100BBD0064036003020C4C900001E024FFF09000F0
:100BCD0000E034FFF0E07002A3E0706C90000004D0
:100BDD00F0A3E4F0900087F0900000E0FEA3E0FBAE
:100BED00AA06E4F9F8900087E025E025E02417F542
:100BFD0082E43400F583E0FCA3E0FDA3E0FEA3E076
:100C0D00FF120498900087E0FB25E025E02458F5BD
:100C1D0082E43400F58312055EEB25E025E0241710
:100C2D00F582E43400F58312056A0000000090009F
:100C3D0087E004F0E0B404A0900031E4F080069069
:050C4D000031E004F09D
:100C5200D007D006D005D004D003D002D001D000F6
:0B0C6200D0D0D082D083D0F0D0E032A0
:0100030022DA
:0100040022D9
:0100050022D8
:0100060022D7
:0100070022D6
:0100080022D5
:0A0039005390BF43A04053A07F2264
:10000E005390BF53A0BF43A08090000E12056A000C
:04001E0000012C228F
:0A004E005390BF43A04043A080225E
:10008600020447E86480F8E933E83360110460F05D
:10009600ED33EC337009E8FCE9FDEAFEEBFF2204E0
:1000A60060DED3EB9FEA9EE99DE8C2E78CF0C2F7DB
:1000B60095F0400CE8CCF8E9CDF9EACEFAEBCFFBA7
:1000C60012041285D0F05804700320D5B3E80470EA
:1000D600075002B2D502045192D5EC0460F7E4CC85
:1000E600C0E0C398F8603B94186008400DD0E0FB70
:1000F600020429E4FBFAC9FC8028E830E406E4C9D6
:10010600FBE4CAFCE830E305E4C9CACBFCE85407C3
:100116006010F8C3E913F9EA13FAEB13FBEC13FCCE
:10012600D8F130F52FC3E49CFCEF9BFFEE9AFEED71
:1001360099FDD0E0FBEF4E4D4C701222DB0302041A
:100146004EEC2CFCEF33FFEE33FEED33FDED30E7E6
:10015600EB020429EF2BFFEE3AFEED39FDD0E0FB72
:1001660050130BBB0003020451ED13FDEE13FEEF1B
:0801760013FFEC13FC02042945
:10017E00EC4D6011E8497017ED33EC3304600DE47B
:10018E00FCFFFEFD22E933E8330470F80204471247
:10019E00041258046009E4CC248150062850090248
:1001AE00045128400302044EC0E0EB4A7044B9806B
:1001BE0006D0E0FB02043DEF4E701CBD8008EBFF45
:1001CE00EAFEE9FD80EBE98DF0A4FEE5F0020267A0
:1001DE00E9CDF9EAFEEBFFEF89F0A4FCE5F0CE895C
:1001EE00F0A42EFFE435F0CD89F0A42DFEE435F019
:1001FE008067EF4E7005BD80D780C3EF8BF0A4AC47
:10020E00F0EE8BF0A42CFCE435F0F8EF8AF0A42C81
:10021E00E5F038FCE433CB8DF0A42CFCE5F03BF894
:10022E00EE8AF0A42CFCE5F038F8E433CF89F0A484
:10023E002CFCE5F038CF3400CE89F0A42FFFE5F08A
:10024E003EFEE433C98DF0A42EFEE5F039CD8AF0E2
:10025E00A42FFFE5F03EFEE43DFD33D0E0FB50075A
:10026E000BBB000F020451EC2CFCEF33FFEE33FE00
:06027E00ED33FD0204292E
:10028400020451EC5D046005E8590470030204475C
:10029400120412580460F6EC4860F2EC7004FDFE9F
:1002A400FF22C860DB2481C85009C398600250064D
:1002B40002044E9850CAF582E9294B4A7005AB8274
:1002C40002043D75F0007C1A7880C3EF9BEE9AED32
:1002D40099400DC3EF9BFFEE9AFEED99FDE842F0C5
:1002E400DC23ACF0D0E0FFD0E0FED0E0FDAB822018
:1002F400E7101BEB60BAEC2CFCEF33FFEE33FEEDA2
:1003040033FD020429E803F830E705C0F075F00076
:10031400EF2FFFEE33FEED33FD40B830E7C280AA85
:1003240074F8CC6480CCC86480C8F58204604FC380
:10033400EB9FF5F0EA9E42F0E99D42F0E89C45F01F
:10034400603C501DE5825FFFE582D313CB5BCBF4A9
:100354002B5582FB50280ABA002409B900200880D2
:100364001DE5825BFBE582D313CF5FCFF4C3132F6C
:100374005582FF50090EBE00050DBD00010CC3EBF4
:100384009FF5F0EA9E42F0E99D42F0E89C45F0605A
:0903940007CC4820E701B3EC227C
:10039D0075F020800E75F010800575F0087D007EDB
:1003AD00007F003392D530D50312052AEC3340106F
:1003BD00EF33FFEE33FEED33FDEC33FCD5F0ED22E4
:0E03CD00E5F0247EA2D513CC92E7CDCEFF2220
:1003DB00EDD2E7CD33EC3392D524814006E4FFFE1A
:1003EB00FDFC22FCE4CFCECDCC24E0501174FF8079
:1003FB00EDC3CC13CCCD13CDCE13CECF13CF047016
:07040B00F030D5DE02052AE6
:10041200E9D2E7C933E833F892D5EDD2E7CD33EC30
:0704220033FC5002B2D522A9
:10042900EC30E7100FBF000C0EBE00080DBD000434
:100439000BEB6014A2D5EB13FCED92E7FD2274FFE0
:10044900FCFDFEFF22E480F8A2D574FF13FC7D8039
:03045900E480EF4D
:100D750002105CE493A3F8E493A34003F68001F228
:100D850008DFF48029E493A3F85407240CC8C3337F
:100D9500C4540F4420C8834004F456800146F6DF4E
:100DA500E4800B0102040810204080900EE0E47EF0
:100DB500019360BCA3FF543F30E509541FFEE49343
:100DC500A360010ECF54C025E060A840B8E493A30A
:100DD500FAE493A3F8E493A3C8C582C8CAC583CA35
:100DE500F0A3C8C582C8CAC583CADFE9DEE780BEED
:010F330000BD
:10045C0075F008758200EF2FFFEE33FECD33CDCC57
:10046C0033CCC58233C5829BED9AEC99E5829840DA
:10047C000CF582EE9BFEED9AFDEC99FC0FD5F0D6B7
:10048C00E4CEFBE4CDFAE4CCF9A88222B800C1B9E1
:10049C000059BA002DEC8BF084CFCECDFCE5F0CB1F
:1004AC00F97818EF2FFFEE33FEED33FDEC33FCEB58
:1004BC0033FB10D703994004EB99FB0FD8E5E4F913
:1004CC00FA227818EF2FFFEE33FEED33FDEC33FC00
:1004DC00C933C910D7059BE99A4007EC9BFCE99AF4
:1004EC00F90FD8E0E4C9FAE4CCFB2275F010EF2F39
:1004FC00FFEE33FEED33FDCC33CCC833C810D70739
:10050C009BEC9AE899400AED9BFDEC9AFCE899F873
:0E051C000FD5F0DAE4CDFBE4CCFAE4C8F92206
:0E052A00C3E49FFFE49EFEE49DFDE49CFC22E2
:10053800E8600FECC313FCED13FDEE13FEEF13FFA1
:03054800D8F122C5
:10054B00E8600FEFC333FFEE33FEED33FDEC33FC0E
:03055B00D8F122B2
:0C055E00ECF0A3EDF0A3EEF0A3EFF02210
:10056A00A8828583F0D083D0821205811205811278
:10057A000581120581E473E493A3C583C5F0C5839D
:10058A00C8C582C8F0A3C583C5F0C583C8C582C8DB
:01059A00223E
:00000001FF
